{
  "_format": "hh-sol-artifact-1",
  "contractName": "Feed",
  "sourceName": "contracts/base/Feed.sol",
  "abi": [
    {
      "inputs": [
        {
          "internalType": "uint256",
          "name": "price_",
          "type": "uint256"
        },
        {
          "internalType": "string",
          "name": "name_",
          "type": "string"
        }
      ],
      "stateMutability": "nonpayable",
      "type": "constructor"
    },
    {
      "inputs": [],
      "name": "name",
      "outputs": [
        {
          "internalType": "string",
          "name": "",
          "type": "string"
        }
      ],
      "stateMutability": "view",
      "type": "function"
    },
    {
      "inputs": [],
      "name": "price",
      "outputs": [
        {
          "internalType": "uint256",
          "name": "",
          "type": "uint256"
        }
      ],
      "stateMutability": "view",
      "type": "function"
    },
    {
      "inputs": [
        {
          "internalType": "uint256",
          "name": "price_",
          "type": "uint256"
        }
      ],
      "name": "updatePrice",
      "outputs": [],
      "stateMutability": "nonpayable",
      "type": "function"
    }
  ],
  "bytecode": "0x608060405234801561001057600080fd5b5060405161042438038061042483398101604081905261002f916100e8565b6000829055805161004790600190602084019061004f565b505050610209565b82805461005b906101b8565b90600052602060002090601f01602090048101928261007d57600085556100c3565b82601f1061009657805160ff19168380011785556100c3565b828001600101855582156100c3579182015b828111156100c35782518255916020019190600101906100a8565b506100cf9291506100d3565b5090565b5b808211156100cf57600081556001016100d4565b600080604083850312156100fa578182fd5b8251602080850151919350906001600160401b038082111561011a578384fd5b818601915086601f83011261012d578384fd5b81518181111561013f5761013f6101f3565b604051601f8201601f1916810185018381118282101715610162576101626101f3565b6040528181528382018501891015610178578586fd5b8592505b81831015610199578383018501518184018601529184019161017c565b818311156101a957858583830101525b80955050505050509250929050565b6002810460018216806101cc57607f821691505b602082108114156101ed57634e487b7160e01b600052602260045260246000fd5b50919050565b634e487b7160e01b600052604160045260246000fd5b61020c806102186000396000f3fe608060405234801561001057600080fd5b50600436106100415760003560e01c806306fdde03146100465780638d6cc56d14610064578063a035b1fe14610079575b600080fd5b61004e61008e565b60405161005b919061013f565b60405180910390f35b610077610072366004610127565b61011c565b005b610081610121565b60405161005b9190610192565b6001805461009b9061019b565b80601f01602080910402602001604051908101604052809291908181526020018280546100c79061019b565b80156101145780601f106100e957610100808354040283529160200191610114565b820191906000526020600020905b8154815290600101906020018083116100f757829003601f168201915b505050505081565b600055565b60005481565b600060208284031215610138578081fd5b5035919050565b6000602080835283518082850152825b8181101561016b5785810183015185820160400152820161014f565b8181111561017c5783604083870101525b50601f01601f1916929092016040019392505050565b90815260200190565b6002810460018216806101af57607f821691505b602082108114156101d057634e487b7160e01b600052602260045260246000fd5b5091905056fea26469706673582212202694cf245b123045b0433a88e81e8e3de81358471336080cca788587fd6c8d1964736f6c63430008000033",
  "linkReferences": {},
  "deployedLinkReferences": {}
}