{
  "_format": "hh-sol-artifact-1",
  "contractName": "AuctionHouse",
  "sourceName": "contracts/AuctionHouse.sol",
  "abi": [
    {
      "anonymous": false,
      "inputs": [
        {
          "indexed": true,
          "internalType": "address",
          "name": "cdp",
          "type": "address"
        },
        {
          "indexed": true,
          "internalType": "address",
          "name": "keeper",
          "type": "address"
        },
        {
          "indexed": false,
          "internalType": "uint256",
          "name": "amount",
          "type": "uint256"
        },
        {
          "indexed": false,
          "internalType": "uint256",
          "name": "start",
          "type": "uint256"
        },
        {
          "indexed": false,
          "internalType": "uint256",
          "name": "end",
          "type": "uint256"
        }
      ],
      "name": "Start",
      "type": "event"
    },
    {
      "anonymous": false,
      "inputs": [
        {
          "indexed": true,
          "internalType": "uint256",
          "name": "id",
          "type": "uint256"
        },
        {
          "indexed": true,
          "internalType": "address",
          "name": "keeper",
          "type": "address"
        },
        {
          "indexed": true,
          "internalType": "address",
          "name": "to",
          "type": "address"
        },
        {
          "indexed": false,
          "internalType": "uint256",
          "name": "amount",
          "type": "uint256"
        },
        {
          "indexed": false,
          "internalType": "uint256",
          "name": "price",
          "type": "uint256"
        },
        {
          "indexed": false,
          "internalType": "uint256",
          "name": "end",
          "type": "uint256"
        }
      ],
      "name": "Take",
      "type": "event"
    },
    {
      "inputs": [
        {
          "internalType": "uint256",
          "name": "id",
          "type": "uint256"
        },
        {
          "internalType": "contract Minter",
          "name": "minter",
          "type": "address"
        },
        {
          "internalType": "address",
          "name": "user",
          "type": "address"
        },
        {
          "internalType": "contract GTokenERC20",
          "name": "tokenCollateral",
          "type": "address"
        },
        {
          "internalType": "contract GTokenERC20",
          "name": "synthToken",
          "type": "address"
        },
        {
          "internalType": "uint256",
          "name": "collateralBalance",
          "type": "uint256"
        },
        {
          "internalType": "uint256",
          "name": "synthAmount",
          "type": "uint256"
        }
      ],
      "name": "auctionFinishCallback",
      "outputs": [],
      "stateMutability": "nonpayable",
      "type": "function"
    },
    {
      "inputs": [
        {
          "internalType": "uint256",
          "name": "",
          "type": "uint256"
        }
      ],
      "name": "auctions",
      "outputs": [
        {
          "internalType": "address",
          "name": "user",
          "type": "address"
        },
        {
          "internalType": "address",
          "name": "tokenAddress",
          "type": "address"
        },
        {
          "internalType": "address",
          "name": "collateralTokenAddress",
          "type": "address"
        },
        {
          "internalType": "address",
          "name": "keeperAddress",
          "type": "address"
        },
        {
          "internalType": "uint256",
          "name": "collateralBalance",
          "type": "uint256"
        },
        {
          "internalType": "uint256",
          "name": "collateralValue",
          "type": "uint256"
        },
        {
          "internalType": "uint256",
          "name": "synthAmount",
          "type": "uint256"
        },
        {
          "internalType": "uint256",
          "name": "auctionTarget",
          "type": "uint256"
        },
        {
          "internalType": "uint256",
          "name": "initialFeedPrice",
          "type": "uint256"
        },
        {
          "internalType": "address",
          "name": "minterAddress",
          "type": "address"
        },
        {
          "internalType": "uint256",
          "name": "startTimestamp",
          "type": "uint256"
        },
        {
          "internalType": "uint256",
          "name": "endTimestamp",
          "type": "uint256"
        }
      ],
      "stateMutability": "view",
      "type": "function"
    },
    {
      "inputs": [
        {
          "internalType": "uint256",
          "name": "debtBalance",
          "type": "uint256"
        },
        {
          "internalType": "uint256",
          "name": "collateral",
          "type": "uint256"
        }
      ],
      "name": "calculateAmountToFixCollateral",
      "outputs": [
        {
          "internalType": "uint256",
          "name": "",
          "type": "uint256"
        }
      ],
      "stateMutability": "pure",
      "type": "function"
    },
    {
      "inputs": [
        {
          "internalType": "uint256",
          "name": "auctionId",
          "type": "uint256"
        }
      ],
      "name": "getAuction",
      "outputs": [
        {
          "components": [
            {
              "internalType": "address",
              "name": "user",
              "type": "address"
            },
            {
              "internalType": "address",
              "name": "tokenAddress",
              "type": "address"
            },
            {
              "internalType": "address",
              "name": "collateralTokenAddress",
              "type": "address"
            },
            {
              "internalType": "address",
              "name": "keeperAddress",
              "type": "address"
            },
            {
              "internalType": "uint256",
              "name": "collateralBalance",
              "type": "uint256"
            },
            {
              "internalType": "uint256",
              "name": "collateralValue",
              "type": "uint256"
            },
            {
              "internalType": "uint256",
              "name": "synthAmount",
              "type": "uint256"
            },
            {
              "internalType": "uint256",
              "name": "auctionTarget",
              "type": "uint256"
            },
            {
              "internalType": "uint256",
              "name": "initialFeedPrice",
              "type": "uint256"
            },
            {
              "internalType": "address",
              "name": "minterAddress",
              "type": "address"
            },
            {
              "internalType": "uint256",
              "name": "startTimestamp",
              "type": "uint256"
            },
            {
              "internalType": "uint256",
              "name": "endTimestamp",
              "type": "uint256"
            }
          ],
          "internalType": "struct AuctionHouse.Auction",
          "name": "",
          "type": "tuple"
        }
      ],
      "stateMutability": "view",
      "type": "function"
    },
    {
      "inputs": [
        {
          "internalType": "uint256",
          "name": "initialPrice",
          "type": "uint256"
        },
        {
          "internalType": "uint256",
          "name": "duration",
          "type": "uint256"
        }
      ],
      "name": "price",
      "outputs": [
        {
          "internalType": "uint256",
          "name": "",
          "type": "uint256"
        }
      ],
      "stateMutability": "pure",
      "type": "function"
    },
    {
      "inputs": [],
      "name": "rad",
      "outputs": [
        {
          "internalType": "uint256",
          "name": "",
          "type": "uint256"
        }
      ],
      "stateMutability": "pure",
      "type": "function"
    },
    {
      "inputs": [
        {
          "internalType": "uint256",
          "name": "dividend",
          "type": "uint256"
        },
        {
          "internalType": "uint256",
          "name": "divisor",
          "type": "uint256"
        }
      ],
      "name": "radiv",
      "outputs": [
        {
          "internalType": "uint256",
          "name": "",
          "type": "uint256"
        }
      ],
      "stateMutability": "pure",
      "type": "function"
    },
    {
      "inputs": [],
      "name": "ray",
      "outputs": [
        {
          "internalType": "uint256",
          "name": "",
          "type": "uint256"
        }
      ],
      "stateMutability": "pure",
      "type": "function"
    },
    {
      "inputs": [
        {
          "internalType": "address",
          "name": "user_",
          "type": "address"
        },
        {
          "internalType": "address",
          "name": "tokenAddress_",
          "type": "address"
        },
        {
          "internalType": "address",
          "name": "collateralTokenAddress_",
          "type": "address"
        },
        {
          "internalType": "address",
          "name": "keeperAddress_",
          "type": "address"
        },
        {
          "internalType": "uint256",
          "name": "collateralBalance_",
          "type": "uint256"
        },
        {
          "internalType": "uint256",
          "name": "collateralValue_",
          "type": "uint256"
        },
        {
          "internalType": "uint256",
          "name": "auctionTarget_",
          "type": "uint256"
        },
        {
          "internalType": "uint256",
          "name": "initialFeedPrice_",
          "type": "uint256"
        }
      ],
      "name": "start",
      "outputs": [],
      "stateMutability": "nonpayable",
      "type": "function"
    },
    {
      "inputs": [
        {
          "internalType": "uint256",
          "name": "auctionId",
          "type": "uint256"
        },
        {
          "internalType": "uint256",
          "name": "amount",
          "type": "uint256"
        },
        {
          "internalType": "uint256",
          "name": "maxCollateralPrice",
          "type": "uint256"
        },
        {
          "internalType": "address",
          "name": "receiver",
          "type": "address"
        }
      ],
      "name": "take",
      "outputs": [],
      "stateMutability": "nonpayable",
      "type": "function"
    },
    {
      "inputs": [],
      "name": "wad",
      "outputs": [
        {
          "internalType": "uint256",
          "name": "",
          "type": "uint256"
        }
      ],
      "stateMutability": "pure",
      "type": "function"
    }
  ],
  "bytecode": "0x608060405234801561001057600080fd5b506114ce806100206000396000f3fe608060405234801561001057600080fd5b50600436106100a95760003560e01c8063571a26a011610071578063571a26a01461011a57806378bd7935146101455780637df38c5b14610165578063b419c2941461016d578063b8509a5814610180578063ba83a29214610193576100a9565b806309a7a430146100ae5780630ac045d5146100c3578063235e0cd8146100ec578063416a8b20146100ff578063487a239514610107575b600080fd5b6100c16100bc366004610f26565b61019b565b005b6100d66100d1366004611056565b610487565b6040516100e391906113a8565b60405180910390f35b6100d66100fa366004611056565b6104c0565b6100d6610504565b6100d6610115366004611056565b610514565b61012d610128366004610fc5565b610562565b6040516100e39c9b9a999897969594939291906110c4565b610158610153366004610fc5565b6105e4565b6040516100e391906112f5565b6100d66106c1565b6100c161017b366004611077565b6106cd565b6100c161018e366004610fdd565b610cf8565b6100d6610d69565b4260006101ab8262093a806113fc565b905060006040518061018001604052808c6001600160a01b031681526020018b6001600160a01b031681526020018a6001600160a01b03168152602001896001600160a01b0316815260200188815260200187815260200160008152602001868152602001858152602001336001600160a01b031681526020018481526020018381525090806001815401808255809150506001900390600052602060002090600c020160009091909190915060008201518160000160006101000a8154816001600160a01b0302191690836001600160a01b0316021790555060208201518160010160006101000a8154816001600160a01b0302191690836001600160a01b0316021790555060408201518160020160006101000a8154816001600160a01b0302191690836001600160a01b0316021790555060608201518160030160006101000a8154816001600160a01b0302191690836001600160a01b031602179055506080820151816004015560a0820151816005015560c0820151816006015560e0820151816007015561010082015181600801556101208201518160090160006101000a8154816001600160a01b0302191690836001600160a01b0316021790555061014082015181600a015561016082015181600b01555050866001600160a01b0316896001600160a01b03167f6da98559a575ee7b022dcfd0d5f5bfd8650e70446c2b2b663fa7b7f3a18b2d098885856040516103cc939291906113e6565b60405180910390a36040516323b872dd60e01b81526001600160a01b038916906323b872dd9061040490339030908b9060040161112e565b602060405180830381600087803b15801561041e57600080fd5b505af1158015610432573d6000803e3d6000fd5b505050506040513d601f19601f820116820180604052508101906104569190610fa5565b61047b5760405162461bcd60e51b815260040161047290611278565b60405180910390fd5b50505050505050505050565b60008082610496856009611434565b6104a09190611453565b90506104ae60016009611453565b6104b89082611414565b949350505050565b60006104fd6104eb6104e5722cd76fe086b93ce2f768a00b22a0000000000086611434565b84610d80565b6b033b2e3c9fd0803ce8000000610d80565b9392505050565b6b033b2e3c9fd0803ce800000090565b60006104fd8361055d60646105366b033b2e3c9fd0803ce80000006063611434565b6105409190611414565b61054b605a87611414565b6b033b2e3c9fd0803ce8000000610d8c565b610e4a565b6000818154811061057257600080fd5b60009182526020909120600c9091020180546001820154600283015460038401546004850154600586015460068701546007880154600889015460098a0154600a8b0154600b909b01546001600160a01b039a8b169c50988a169a978a1699968716989597949693959294919316918c565b6105ec610e98565b6000828154811061060d57634e487b7160e01b600052603260045260246000fd5b60009182526020918290206040805161018081018252600c90930290910180546001600160a01b0390811684526001820154811694840194909452600281015484169183019190915260038101548316606083015260048101546080830152600581015460a0830152600681015460c0830152600781015460e083015260088101546101008301526009810154909216610120820152600a820154610140820152600b909101546101608201529050919050565b670de0b6b3a764000090565b60008085815481106106ef57634e487b7160e01b600052603260045260246000fd5b90600052602060002090600c02019050600080600086118015610716575060008360070154115b6107325760405162461bcd60e51b81526004016104729061116b565b82600a015442118015610748575082600b015442105b6107645760405162461bcd60e51b81526004016104729061121b565b826004015486111561077c5782600401549150610780565b8591505b600061079a846008015485600a0154426101159190611453565b9050808610156107bc5760405162461bcd60e51b8152600401610472906112a5565b6000670de0b6b3a76400006107d18584610e8c565b6107db9190611414565b9050600061080a8660070154670de0b6b3a76400008589600401546108009190611434565b6100d19190611414565b90506000811161081957600080fd5b8181111561099657819350600a600b678ac7230489e8000061083b9190611434565b6108459190611414565b8287600701546108559190611453565b106108a05761086482846104c0565b94508186600701600082825461087a9190611453565b92505081905550848660040160008282546108959190611453565b9091555061095b9050565b600a6108b5600b678ac7230489e80000611434565b6108bf9190611414565b8660070154116108e15760405162461bcd60e51b81526004016104729061124b565b610918600a6108f9600b678ac7230489e80000611434565b6109039190611414565b87600701546109129190611453565b846104c0565b9450600a61092f600b678ac7230489e80000611434565b6109399190611414565b8660070181905550848660040160008282546109559190611453565b90915550505b670de0b6b3a764000061096e8685610e8c565b6109789190611414565b86600601600082825461098b91906113fc565b909155506109e49050565b8093506109a381846104c0565b945060008660070181905550848660040160008282546109c39190611453565b92505081905550838660060160008282546109de91906113fc565b90915550505b600186015460028701546040516323b872dd60e01b81526001600160a01b03928316929091169082906323b872dd90610a2590339030908b9060040161112e565b602060405180830381600087803b158015610a3f57600080fd5b505af1158015610a53573d6000803e3d6000fd5b505050506040513d601f19601f82011682018060405250810190610a779190610fa5565b610a935760405162461bcd60e51b8152600401610472906111e4565b60405163a9059cbb60e01b81526001600160a01b0382169063a9059cbb90610ac1908c908b90600401611152565b602060405180830381600087803b158015610adb57600080fd5b505af1158015610aef573d6000803e3d6000fd5b505050506040513d601f19601f82011682018060405250810190610b139190610fa5565b610b2f5760405162461bcd60e51b8152600401610472906111ad565b6007880154610c965760098801546004808a015460405163095ea7b360e01b81526001600160a01b038581169463095ea7b394610b7194929091169201611152565b602060405180830381600087803b158015610b8b57600080fd5b505af1158015610b9f573d6000803e3d6000fd5b505050506040513d601f19601f82011682018060405250810190610bc39190610fa5565b506009880154600689015460405163095ea7b360e01b81526001600160a01b038581169363095ea7b393610bfe939290911691600401611152565b602060405180830381600087803b158015610c1857600080fd5b505af1158015610c2c573d6000803e3d6000fd5b505050506040513d601f19601f82011682018060405250810190610c509190610fa5565b50610c968c8960090160009054906101000a90046001600160a01b03168a60000160009054906101000a90046001600160a01b031684868d600401548e60060154610cf8565b886001600160a01b0316336001600160a01b03168d7fdb2f6ee1f3a9cbaefcf499bd3bc673d1122a26182fca3bb4d31ab4337635b39a8a898d600b0154604051610ce2939291906113e6565b60405180910390a4505050505050505050505050565b604051631492eb7b60e01b81526001600160a01b03871690631492eb7b90610d2e908a90899089908990899089906004016113b1565b600060405180830381600087803b158015610d4857600080fd5b505af1158015610d5c573d6000803e3d6000fd5b5050505050505050505050565b722cd76fe086b93ce2f768a00b22a0000000000090565b60006104fd8284611414565b6000828015610e3e57848015610e3357600185168015610dae57869350610db2565b8493505b50600284046002860495505b8515610e2d578687028760801c15610dd557600080fd5b81810181811015610de557600080fd5b8690049750506001861615610e22578684028488820414158815151615610e0b57600080fd5b81810181811015610e1b57600080fd5b8690049450505b600286049550610dbe565b50610e38565b600092505b50610e42565b8291505b509392505050565b6000610e568383610e8c565b9050811580610e6d575082610e6b8383611414565b145b610e7657600080fd5b6104fd816b033b2e3c9fd0803ce8000000610d80565b60006104fd8284611434565b60405180610180016040528060006001600160a01b0316815260200160006001600160a01b0316815260200160006001600160a01b0316815260200160006001600160a01b03168152602001600081526020016000815260200160008152602001600081526020016000815260200160006001600160a01b0316815260200160008152602001600081525090565b600080600080600080600080610100898b031215610f42578384fd5b8835610f4d81611480565b97506020890135610f5d81611480565b96506040890135610f6d81611480565b95506060890135610f7d81611480565b979a969950949760808101359660a0820135965060c0820135955060e0909101359350915050565b600060208284031215610fb6578081fd5b815180151581146104fd578182fd5b600060208284031215610fd6578081fd5b5035919050565b600080600080600080600060e0888a031215610ff7578283fd5b87359650602088013561100981611480565b9550604088013561101981611480565b9450606088013561102981611480565b9350608088013561103981611480565b9699959850939692959460a0840135945060c09093013592915050565b60008060408385031215611068578182fd5b50508035926020909101359150565b6000806000806080858703121561108c578384fd5b84359350602085013592506040850135915060608501356110ac81611480565b939692955090935050565b6001600160a01b03169052565b6001600160a01b039c8d1681529a8c1660208c0152988b1660408b0152968a1660608a0152608089019590955260a088019390935260c087019190915260e08601526101008501529093166101208301526101408201929092526101608101919091526101800190565b6001600160a01b039384168152919092166020820152604081019190915260600190565b6001600160a01b03929092168252602082015260400190565b60208082526022908201527f496e76616c696420616d6f756e74206f722061756374696f6e2066696e697368604082015261195960f21b606082015260800190565b6020808252601d908201527f7472616e7366657220746f6b656e20746f206b6565706572206661696c000000604082015260600190565b6020808252601f908201527f7472616e7366657220746f6b656e2066726f6d206b6565706572206661696c00604082015260600190565b602080825260169082015275105d58dd1a5bdb881c195c9a5bd9081a5b9d985b1a5960521b604082015260600190565b6020808252601390820152724e6f207061727469616c20707572636861736560681b604082015260600190565b6020808252601390820152721d1bdad95b881d1c985b9cd9995c8819985a5b606a1b604082015260600190565b60208082526030908201527f70726963652074696d6520686f75736520697320626967676572207468616e2060408201526f636f6c6c61746572616c20707269636560801b606082015260800190565b6000610180820190506113098284516110b7565b602083015161131b60208401826110b7565b50604083015161132e60408401826110b7565b50606083015161134160608401826110b7565b506080830151608083015260a083015160a083015260c083015160c083015260e083015160e083015261010080840151818401525061012080840151611389828501826110b7565b5050610140838101519083015261016092830151929091019190915290565b90815260200190565b9586526001600160a01b039485166020870152928416604086015292166060840152608083019190915260a082015260c00190565b9283526020830191909152604082015260600190565b6000821982111561140f5761140f61146a565b500190565b60008261142f57634e487b7160e01b81526012600452602481fd5b500490565b600081600019048311821515161561144e5761144e61146a565b500290565b6000828210156114655761146561146a565b500390565b634e487b7160e01b600052601160045260246000fd5b6001600160a01b038116811461149557600080fd5b5056fea26469706673582212200de0aa0e4de1bc442fd9a2aa3f7dfa1031d1dd3c640ed877653fcb27de92f48b64736f6c63430008000033",
  "linkReferences": {},
  "deployedLinkReferences": {}
}