{
  "_format": "hh-sol-artifact-1",
  "contractName": "Minter",
  "sourceName": "contracts/Minter.sol",
  "abi": [
    {
      "inputs": [
        {
          "internalType": "address",
          "name": "collateralToken_",
          "type": "address"
        },
        {
          "internalType": "address",
          "name": "collateralFeed_",
          "type": "address"
        },
        {
          "internalType": "address",
          "name": "auctionHouse_",
          "type": "address"
        }
      ],
      "stateMutability": "nonpayable",
      "type": "constructor"
    },
    {
      "anonymous": false,
      "inputs": [
        {
          "indexed": true,
          "internalType": "address",
          "name": "account",
          "type": "address"
        },
        {
          "indexed": true,
          "internalType": "address",
          "name": "keeper",
          "type": "address"
        },
        {
          "indexed": false,
          "internalType": "uint256",
          "name": "deadline",
          "type": "uint256"
        }
      ],
      "name": "AccountFlaggedForLiquidation",
      "type": "event"
    },
    {
      "anonymous": false,
      "inputs": [
        {
          "indexed": true,
          "internalType": "uint256",
          "name": "id",
          "type": "uint256"
        },
        {
          "indexed": false,
          "internalType": "address",
          "name": "user",
          "type": "address"
        },
        {
          "indexed": false,
          "internalType": "uint256",
          "name": "finished_at",
          "type": "uint256"
        }
      ],
      "name": "AuctionFinish",
      "type": "event"
    },
    {
      "anonymous": false,
      "inputs": [
        {
          "indexed": true,
          "internalType": "address",
          "name": "account",
          "type": "address"
        },
        {
          "indexed": false,
          "internalType": "address",
          "name": "token",
          "type": "address"
        },
        {
          "indexed": false,
          "internalType": "uint256",
          "name": "amount",
          "type": "uint256"
        }
      ],
      "name": "Burn",
      "type": "event"
    },
    {
      "anonymous": false,
      "inputs": [
        {
          "indexed": false,
          "internalType": "address",
          "name": "token",
          "type": "address"
        },
        {
          "indexed": false,
          "internalType": "string",
          "name": "name",
          "type": "string"
        },
        {
          "indexed": false,
          "internalType": "string",
          "name": "symbol",
          "type": "string"
        },
        {
          "indexed": false,
          "internalType": "address",
          "name": "feed",
          "type": "address"
        }
      ],
      "name": "CreateSynth",
      "type": "event"
    },
    {
      "anonymous": false,
      "inputs": [
        {
          "indexed": true,
          "internalType": "address",
          "name": "account",
          "type": "address"
        },
        {
          "indexed": false,
          "internalType": "address",
          "name": "token",
          "type": "address"
        },
        {
          "indexed": false,
          "internalType": "uint256",
          "name": "amount",
          "type": "uint256"
        }
      ],
      "name": "DepositedCollateral",
      "type": "event"
    },
    {
      "anonymous": false,
      "inputs": [
        {
          "indexed": true,
          "internalType": "address",
          "name": "accountLiquidated",
          "type": "address"
        },
        {
          "indexed": true,
          "internalType": "address",
          "name": "accountFrom",
          "type": "address"
        },
        {
          "indexed": false,
          "internalType": "address",
          "name": "token",
          "type": "address"
        }
      ],
      "name": "Liquidate",
      "type": "event"
    },
    {
      "anonymous": false,
      "inputs": [
        {
          "indexed": true,
          "internalType": "address",
          "name": "account",
          "type": "address"
        },
        {
          "indexed": false,
          "internalType": "uint256",
          "name": "totalAmount",
          "type": "uint256"
        }
      ],
      "name": "Mint",
      "type": "event"
    },
    {
      "anonymous": false,
      "inputs": [
        {
          "indexed": true,
          "internalType": "address",
          "name": "account",
          "type": "address"
        },
        {
          "indexed": false,
          "internalType": "address",
          "name": "token",
          "type": "address"
        },
        {
          "indexed": false,
          "internalType": "uint256",
          "name": "amount",
          "type": "uint256"
        }
      ],
      "name": "WithdrawnCollateral",
      "type": "event"
    },
    {
      "inputs": [],
      "name": "FLAG_TIP",
      "outputs": [
        {
          "internalType": "uint256",
          "name": "",
          "type": "uint256"
        }
      ],
      "stateMutability": "view",
      "type": "function"
    },
    {
      "inputs": [],
      "name": "PENALTY_FEE",
      "outputs": [
        {
          "internalType": "uint256",
          "name": "",
          "type": "uint256"
        }
      ],
      "stateMutability": "view",
      "type": "function"
    },
    {
      "inputs": [
        {
          "internalType": "contract GTokenERC20",
          "name": "token",
          "type": "address"
        },
        {
          "internalType": "address",
          "name": "user",
          "type": "address"
        },
        {
          "internalType": "address",
          "name": "keeper",
          "type": "address"
        },
        {
          "internalType": "uint256",
          "name": "amount",
          "type": "uint256"
        }
      ],
      "name": "_mintPenalty",
      "outputs": [],
      "stateMutability": "nonpayable",
      "type": "function"
    },
    {
      "inputs": [
        {
          "internalType": "contract GTokenERC20",
          "name": "token",
          "type": "address"
        },
        {
          "internalType": "address",
          "name": "keeper",
          "type": "address"
        },
        {
          "internalType": "uint256",
          "name": "amount",
          "type": "uint256"
        }
      ],
      "name": "_transferLiquidate",
      "outputs": [],
      "stateMutability": "nonpayable",
      "type": "function"
    },
    {
      "inputs": [
        {
          "internalType": "address",
          "name": "",
          "type": "address"
        },
        {
          "internalType": "contract GTokenERC20",
          "name": "",
          "type": "address"
        }
      ],
      "name": "auctionDebt",
      "outputs": [
        {
          "internalType": "uint256",
          "name": "",
          "type": "uint256"
        }
      ],
      "stateMutability": "view",
      "type": "function"
    },
    {
      "inputs": [
        {
          "internalType": "uint256",
          "name": "auctionId",
          "type": "uint256"
        },
        {
          "internalType": "address",
          "name": "user",
          "type": "address"
        },
        {
          "internalType": "contract GTokenERC20",
          "name": "collateralToken",
          "type": "address"
        },
        {
          "internalType": "contract GTokenERC20",
          "name": "synthToken",
          "type": "address"
        },
        {
          "internalType": "uint256",
          "name": "collateralAmount",
          "type": "uint256"
        },
        {
          "internalType": "uint256",
          "name": "synthAmount",
          "type": "uint256"
        }
      ],
      "name": "auctionFinish",
      "outputs": [],
      "stateMutability": "nonpayable",
      "type": "function"
    },
    {
      "inputs": [
        {
          "internalType": "address",
          "name": "from",
          "type": "address"
        },
        {
          "internalType": "contract GTokenERC20",
          "name": "token",
          "type": "address"
        }
      ],
      "name": "balanceOfSynth",
      "outputs": [
        {
          "internalType": "uint256",
          "name": "",
          "type": "uint256"
        }
      ],
      "stateMutability": "view",
      "type": "function"
    },
    {
      "inputs": [
        {
          "internalType": "contract GTokenERC20",
          "name": "token",
          "type": "address"
        },
        {
          "internalType": "uint256",
          "name": "amount",
          "type": "uint256"
        }
      ],
      "name": "burn",
      "outputs": [],
      "stateMutability": "nonpayable",
      "type": "function"
    },
    {
      "inputs": [
        {
          "internalType": "contract GTokenERC20",
          "name": "",
          "type": "address"
        }
      ],
      "name": "cRatioActive",
      "outputs": [
        {
          "internalType": "uint256",
          "name": "",
          "type": "uint256"
        }
      ],
      "stateMutability": "view",
      "type": "function"
    },
    {
      "inputs": [
        {
          "internalType": "contract GTokenERC20",
          "name": "",
          "type": "address"
        }
      ],
      "name": "cRatioPassive",
      "outputs": [
        {
          "internalType": "uint256",
          "name": "",
          "type": "uint256"
        }
      ],
      "stateMutability": "view",
      "type": "function"
    },
    {
      "inputs": [
        {
          "internalType": "address",
          "name": "",
          "type": "address"
        },
        {
          "internalType": "contract GTokenERC20",
          "name": "",
          "type": "address"
        }
      ],
      "name": "collateralBalance",
      "outputs": [
        {
          "internalType": "uint256",
          "name": "",
          "type": "uint256"
        }
      ],
      "stateMutability": "view",
      "type": "function"
    },
    {
      "inputs": [],
      "name": "collateralFeed",
      "outputs": [
        {
          "internalType": "contract Feed",
          "name": "",
          "type": "address"
        }
      ],
      "stateMutability": "view",
      "type": "function"
    },
    {
      "inputs": [],
      "name": "collateralToken",
      "outputs": [
        {
          "internalType": "contract GTokenERC20",
          "name": "",
          "type": "address"
        }
      ],
      "stateMutability": "view",
      "type": "function"
    },
    {
      "inputs": [
        {
          "internalType": "string",
          "name": "name",
          "type": "string"
        },
        {
          "internalType": "string",
          "name": "symbol",
          "type": "string"
        },
        {
          "internalType": "uint256",
          "name": "initialSupply",
          "type": "uint256"
        },
        {
          "internalType": "uint256",
          "name": "cRatioActive_",
          "type": "uint256"
        },
        {
          "internalType": "uint256",
          "name": "cRatioPassive_",
          "type": "uint256"
        },
        {
          "internalType": "contract Feed",
          "name": "feed",
          "type": "address"
        }
      ],
      "name": "createSynth",
      "outputs": [],
      "stateMutability": "nonpayable",
      "type": "function"
    },
    {
      "inputs": [
        {
          "internalType": "contract GTokenERC20",
          "name": "token",
          "type": "address"
        },
        {
          "internalType": "uint256",
          "name": "amount",
          "type": "uint256"
        }
      ],
      "name": "depositCollateral",
      "outputs": [],
      "stateMutability": "nonpayable",
      "type": "function"
    },
    {
      "inputs": [
        {
          "internalType": "contract GTokenERC20",
          "name": "",
          "type": "address"
        }
      ],
      "name": "feeds",
      "outputs": [
        {
          "internalType": "contract Feed",
          "name": "",
          "type": "address"
        }
      ],
      "stateMutability": "view",
      "type": "function"
    },
    {
      "inputs": [
        {
          "internalType": "address",
          "name": "user",
          "type": "address"
        },
        {
          "internalType": "contract GTokenERC20",
          "name": "token",
          "type": "address"
        }
      ],
      "name": "flagLiquidate",
      "outputs": [],
      "stateMutability": "nonpayable",
      "type": "function"
    },
    {
      "inputs": [
        {
          "internalType": "contract GTokenERC20",
          "name": "token",
          "type": "address"
        }
      ],
      "name": "getCRatio",
      "outputs": [
        {
          "internalType": "uint256",
          "name": "",
          "type": "uint256"
        }
      ],
      "stateMutability": "view",
      "type": "function"
    },
    {
      "inputs": [
        {
          "internalType": "uint256",
          "name": "index",
          "type": "uint256"
        }
      ],
      "name": "getSynth",
      "outputs": [
        {
          "internalType": "contract GTokenERC20",
          "name": "",
          "type": "address"
        }
      ],
      "stateMutability": "view",
      "type": "function"
    },
    {
      "inputs": [
        {
          "internalType": "address",
          "name": "user",
          "type": "address"
        },
        {
          "internalType": "contract GTokenERC20",
          "name": "token",
          "type": "address"
        }
      ],
      "name": "liquidate",
      "outputs": [],
      "stateMutability": "nonpayable",
      "type": "function"
    },
    {
      "inputs": [
        {
          "internalType": "contract GTokenERC20",
          "name": "token",
          "type": "address"
        },
        {
          "internalType": "uint256",
          "name": "amount",
          "type": "uint256"
        }
      ],
      "name": "maximumByCollateral",
      "outputs": [
        {
          "internalType": "uint256",
          "name": "",
          "type": "uint256"
        }
      ],
      "stateMutability": "view",
      "type": "function"
    },
    {
      "inputs": [
        {
          "internalType": "contract GTokenERC20",
          "name": "token",
          "type": "address"
        },
        {
          "internalType": "uint256",
          "name": "amount",
          "type": "uint256"
        }
      ],
      "name": "maximumByDebt",
      "outputs": [
        {
          "internalType": "uint256",
          "name": "",
          "type": "uint256"
        }
      ],
      "stateMutability": "view",
      "type": "function"
    },
    {
      "inputs": [
        {
          "internalType": "contract GTokenERC20",
          "name": "token",
          "type": "address"
        },
        {
          "internalType": "uint256",
          "name": "amountToDeposit",
          "type": "uint256"
        },
        {
          "internalType": "uint256",
          "name": "amountToMint",
          "type": "uint256"
        }
      ],
      "name": "mint",
      "outputs": [],
      "stateMutability": "nonpayable",
      "type": "function"
    },
    {
      "inputs": [],
      "name": "owner",
      "outputs": [
        {
          "internalType": "address",
          "name": "",
          "type": "address"
        }
      ],
      "stateMutability": "view",
      "type": "function"
    },
    {
      "inputs": [
        {
          "internalType": "address",
          "name": "",
          "type": "address"
        },
        {
          "internalType": "contract GTokenERC20",
          "name": "",
          "type": "address"
        }
      ],
      "name": "plrDelay",
      "outputs": [
        {
          "internalType": "uint256",
          "name": "",
          "type": "uint256"
        }
      ],
      "stateMutability": "view",
      "type": "function"
    },
    {
      "inputs": [],
      "name": "ratio",
      "outputs": [
        {
          "internalType": "uint256",
          "name": "",
          "type": "uint256"
        }
      ],
      "stateMutability": "view",
      "type": "function"
    },
    {
      "inputs": [
        {
          "internalType": "address",
          "name": "user",
          "type": "address"
        },
        {
          "internalType": "contract GTokenERC20",
          "name": "token",
          "type": "address"
        },
        {
          "internalType": "uint256",
          "name": "amount",
          "type": "uint256"
        }
      ],
      "name": "settleDebt",
      "outputs": [],
      "stateMutability": "nonpayable",
      "type": "function"
    },
    {
      "inputs": [
        {
          "internalType": "contract GTokenERC20",
          "name": "token",
          "type": "address"
        },
        {
          "internalType": "uint256",
          "name": "amountGHO",
          "type": "uint256"
        },
        {
          "internalType": "uint256",
          "name": "amountGDAI",
          "type": "uint256"
        }
      ],
      "name": "simulateCRatio",
      "outputs": [
        {
          "internalType": "uint256",
          "name": "",
          "type": "uint256"
        }
      ],
      "stateMutability": "view",
      "type": "function"
    },
    {
      "inputs": [
        {
          "internalType": "address",
          "name": "",
          "type": "address"
        },
        {
          "internalType": "contract GTokenERC20",
          "name": "",
          "type": "address"
        }
      ],
      "name": "synthDebt",
      "outputs": [
        {
          "internalType": "uint256",
          "name": "",
          "type": "uint256"
        }
      ],
      "stateMutability": "view",
      "type": "function"
    },
    {
      "inputs": [
        {
          "internalType": "uint256",
          "name": "",
          "type": "uint256"
        }
      ],
      "name": "synths",
      "outputs": [
        {
          "internalType": "contract GTokenERC20",
          "name": "",
          "type": "address"
        }
      ],
      "stateMutability": "view",
      "type": "function"
    },
    {
      "inputs": [
        {
          "internalType": "contract GTokenERC20",
          "name": "token",
          "type": "address"
        },
        {
          "internalType": "uint256",
          "name": "cRatio_",
          "type": "uint256"
        },
        {
          "internalType": "uint256",
          "name": "cRatioPassivo_",
          "type": "uint256"
        }
      ],
      "name": "updateSynthCRatio",
      "outputs": [],
      "stateMutability": "nonpayable",
      "type": "function"
    },
    {
      "inputs": [
        {
          "internalType": "contract GTokenERC20",
          "name": "token",
          "type": "address"
        },
        {
          "internalType": "uint256",
          "name": "amount",
          "type": "uint256"
        }
      ],
      "name": "withdrawnCollateral",
      "outputs": [],
      "stateMutability": "nonpayable",
      "type": "function"
    }
  ],
  "bytecode": "0x6080604052677ce66c50e28400006005553480156200001d57600080fd5b506040516200453e3803806200453e8339810160408190526200004091620000ad565b600180546001600160a01b039485166001600160a01b03199182161790915560028054938516938216939093179092556003805491909316908216179091556000805490911633179055620000f6565b80516001600160a01b0381168114620000a857600080fd5b919050565b600080600060608486031215620000c2578283fd5b620000cd8462000090565b9250620000dd6020850162000090565b9150620000ed6040850162000090565b90509250925092565b61443880620001066000396000f3fe60806040523480156200001157600080fd5b5060043610620002205760003560e01c806386b9d81f1162000129578063a7c153a611620000b1578063e1b33c71116200007b578063e1b33c711462000484578063e4b44c80146200049b578063e7602b9d14620004b2578063f40d08d714620004c95762000220565b8063a7c153a61462000442578063b2016bd41462000459578063ca20a95b1462000463578063d4a867c9146200046d5762000220565b8063a08c753211620000f3578063a08c753214620003f3578063a2ec90cb146200040a578063a5d5db0c1462000421578063a673e31a14620004385762000220565b806386b9d81f14620003a45780638da5cb5b14620003bb5780639088192214620003c55780639dc29fac14620003dc5762000220565b8063337e19f111620001ad5780636c8cf81211620001775780636c8cf81214620003555780637011014f146200036c57806371ca337d146200038357806384e5fc54146200038d5762000220565b8063337e19f114620002f957806339673d4e1462000310578063398b766a14620003275780634e8c1b1c146200033e5762000220565b8063156e29f611620001ef578063156e29f6146200029d5780632e74a9b414620002b45780632fba4aa914620002cb57806330edd96114620002e25762000220565b8063015fa28214620002255780630a17fb01146200025457806314139c62146200027a5780631492eb7b1462000284575b600080fd5b6200023c6200023636600462002ae1565b620004e0565b6040516200024b919062002ba8565b60405180910390f35b6200026b62000265366004620028a7565b62000521565b6040516200024b919062002fb0565b6200023c620005ad565b6200029b6200029536600462002b13565b620005bc565b005b6200029b620002ae36600462002a04565b62000863565b6200029b620002c53660046200296a565b62000bd8565b6200023c620002dc3660046200294b565b62000c80565b6200023c620002f336600462002ae1565b62000c9b565b6200029b6200030a366004620028a7565b62000cc6565b6200026b62000321366004620028a7565b62001058565b6200026b620003383660046200294b565b62001075565b6200029b6200034f36600462002a3b565b62001087565b6200026b62000366366004620029d6565b620012cb565b6200026b6200037d366004620028a7565b620013fc565b6200026b62001419565b6200026b6200039e366004620028a7565b6200141f565b6200029b620003b5366004620028a7565b6200143c565b6200023c62001a0d565b6200026b620003d63660046200294b565b62001a1c565b6200029b620003ed366004620029d6565b62001a2e565b6200029b62000404366004620028e4565b62001bb4565b6200029b6200041b36600462002a04565b62001bb9565b6200029b62000432366004620029d6565b62001c30565b6200026b62001e16565b6200026b620004533660046200294b565b62001e1b565b6200023c62002049565b6200026b62002058565b6200029b6200047e366004620029d6565b62002064565b6200026b6200049536600462002a04565b620023cb565b6200029b620004ac366004620029c1565b620025e4565b6200026b620004c3366004620028a7565b620026ae565b6200026b620004da366004620029d6565b620026cb565b6000600482815481106200050457634e487b7160e01b600052603260045260246000fd5b6000918252602090912001546001600160a01b031690505b919050565b6040516370a0823160e01b81526000906001600160a01b038316906370a08231906200055290869060040162002ba8565b60206040518083038186803b1580156200056b57600080fd5b505afa15801562000580573d6000803e3d6000fd5b505050506040513d601f19601f82011682018060405250810190620005a6919062002afa565b9392505050565b6002546001600160a01b031681565b6003546001600160a01b03163314620005f25760405162461bcd60e51b8152600401620005e99062002d59565b60405180910390fd5b6040516323b872dd60e01b81526001600160a01b038516906323b872dd90620006249033903090879060040162002c06565b602060405180830381600087803b1580156200063f57600080fd5b505af115801562000654573d6000803e3d6000fd5b505050506040513d601f19601f820116820180604052508101906200067a919062002929565b620006995760405162461bcd60e51b8152600401620005e99062002e65565b6040516323b872dd60e01b81526001600160a01b038416906323b872dd90620006cb9033903090869060040162002c06565b602060405180830381600087803b158015620006e657600080fd5b505af1158015620006fb573d6000803e3d6000fd5b505050506040513d601f19601f8201168201806040525081019062000721919062002929565b620007405760405162461bcd60e51b8152600401620005e99062002e65565b604051630852cd8d60e31b81526001600160a01b038416906342966c68906200076e90849060040162002fb0565b600060405180830381600087803b1580156200078957600080fd5b505af11580156200079e573d6000803e3d6000fd5b505050506001600160a01b038581166000818152600660209081526040808320948816808452948252808320879055928252600b81528282209382529290925281208054839290620007f290849062003017565b90915550506001600160a01b038086166000908152600c602090815260408083209387168352929052818120555186907f6d5f542cd11abe179d932a89d2ae7e156687ee8f417eb229eb9b5a46ba5c4a979062000853908890429062002c7b565b60405180910390a2505050505050565b60015483906001600160a01b0380831691161415620008965760405162461bcd60e51b8152600401620005e99062002dbd565b620008a2848462001c30565b3360009081526006602090815260408083206001600160a01b0388168452909152902054620008e55760405162461bcd60e51b8152600401620005e99062002cd2565b6000670de0b6b3a7640000600260009054906101000a90046001600160a01b03166001600160a01b031663a035b1fe6040518163ffffffff1660e01b815260040160206040518083038186803b1580156200093f57600080fd5b505afa15801562000954573d6000803e3d6000fd5b505050506040513d601f19601f820116820180604052508101906200097a919062002afa565b3360009081526006602090815260408083206001600160a01b038b168452909152902054620009aa919062002ff5565b620009b6919062002fd4565b6001600160a01b03808716600090815260096020908152604080832054815163501ad8ff60e11b815291519596509294670de0b6b3a764000094939093169263a035b1fe92600480840193919291829003018186803b15801562000a1957600080fd5b505afa15801562000a2e573d6000803e3d6000fd5b505050506040513d601f19601f8201168201806040525081019062000a54919062002afa565b336000908152600a602090815260408083206001600160a01b038c16845290915290205462000a8590879062002fb9565b62000a91919062002ff5565b62000a9d919062002fd4565b60055490915062000aaf828462002fd4565b62000ac390670de0b6b3a764000062002ff5565b101562000ae45760405162461bcd60e51b8152600401620005e99062002d09565b6040516340c10f1960e01b81526001600160a01b038716906340c10f199062000b14903390889060040162002c7b565b600060405180830381600087803b15801562000b2f57600080fd5b505af115801562000b44573d6000803e3d6000fd5b5050336000908152600a602090815260408083206001600160a01b038c1684529091528120805488945090925062000b7e90849062002fb9565b9091555050336000818152600a602090815260408083206001600160a01b038b168452909152908190205490517f0f6798a560793a54c3bcfe86a93cde1e73087d944c0ea20544137d412139688591620008539162002fb0565b6040516340c10f1960e01b81526001600160a01b038516906340c10f199062000c08908590859060040162002c7b565b600060405180830381600087803b15801562000c2357600080fd5b505af115801562000c38573d6000803e3d6000fd5b505050506001600160a01b038381166000908152600a602090815260408083209388168352929052908120805483929062000c7590849062002fb9565b909155505050505050565b6009602052600090815260409020546001600160a01b031681565b6004818154811062000cac57600080fd5b6000918252602090912001546001600160a01b0316905081565b816001600160a01b03811633141562000cf35760405162461bcd60e51b8152600401620005e99062002f79565b6001600160a01b038084166000908152600c6020908152604080832093861683529290522054421162000d2557600080fd5b6001600160a01b038084166000908152600660209081526040808320938616835292905220541580159062000d7e57506001600160a01b038084166000908152600a602090815260408083209386168352929052205415155b62000d9d5760405162461bcd60e51b8152600401620005e99062002ebd565b6000670de0b6b3a7640000600260009054906101000a90046001600160a01b03166001600160a01b031663a035b1fe6040518163ffffffff1660e01b815260040160206040518083038186803b15801562000df757600080fd5b505afa15801562000e0c573d6000803e3d6000fd5b505050506040513d601f19601f8201168201806040525081019062000e32919062002afa565b6001600160a01b0380871660009081526006602090815260408083209389168352929052205462000e64919062002ff5565b62000e70919062002fd4565b6001600160a01b03808516600090815260096020908152604080832054815163501ad8ff60e11b815291519596509294670de0b6b3a764000094939093169263a035b1fe92600480840193919291829003018186803b15801562000ed357600080fd5b505afa15801562000ee8573d6000803e3d6000fd5b505050506040513d601f19601f8201168201806040525081019062000f0e919062002afa565b6001600160a01b038088166000908152600a60209081526040808320938a168352929052205462000f40919062002ff5565b62000f4c919062002fd4565b6001600160a01b03851660009081526008602052604090205490915060649062000f77908362002ff5565b62000f83919062002fd4565b821062000fa45760405162461bcd60e51b8152600401620005e99062002e0a565b62000fb342620d2f0062002fb9565b6001600160a01b038087166000908152600c602090815260408083209389168352929052205562000fef8486336729a2241af62c000062000bd8565b6001600160a01b038581166000818152600c60209081526040808320948916835293905282902054915133927f7b6d8f707470c1bdd273f9d9c0f9aceb7c08121fcd692ffd05f2fd3cd0d060989162001049919062002fb0565b60405180910390a35050505050565b600c60209081526000928352604080842090915290825290205481565b60076020526000908152604090205481565b6000546001600160a01b03163314620010b45760405162461bcd60e51b8152600401620005e99062002de4565b828211620010d65760405162461bcd60e51b8152600401620005e99062002e37565b6000600480549050905060008989898989604051620010f5906200284f565b6200110595949392919062002c94565b604051809103906000f08015801562001122573d6000803e3d6000fd5b506004805460018101825560008281527f8a35acfbc15ff81a39ae7d344fd709f28e8600b4aa8c65c6b64bfe7fe36bd19b90910180546001600160a01b0319166001600160a01b0385161790558154929350879260079290869081106200119957634e487b7160e01b600052603260045260246000fd5b60009182526020808320909101546001600160a01b03168352820192909252604001812091909155600480548692600892909186908110620011eb57634e487b7160e01b600052603260045260246000fd5b60009182526020808320909101546001600160a01b031683528201929092526040018120919091556004805485926009929091869081106200123d57634e487b7160e01b600052603260045260246000fd5b6000918252602080832091909101546001600160a01b039081168452908301939093526040918201902080546001600160a01b03191693909216929092179055517fd2677dc8664b781e907b79f6cd708bec947a77e3ff59b3b68348799139eb49aa90620012b79083908d908d908d908d908a9062002c2a565b60405180910390a150505050505050505050565b600081620012ed5760405162461bcd60e51b8152600401620005e99062002f4f565b6001600160a01b03808416600090815260096020908152604080832054815163501ad8ff60e11b815291519394670de0b6b3a76400009491169263a035b1fe9260048082019391829003018186803b1580156200134957600080fd5b505afa1580156200135e573d6000803e3d6000fd5b505050506040513d601f19601f8201168201806040525081019062001384919062002afa565b336000908152600a602090815260408083206001600160a01b038a168452909152902054620013b590869062002fb9565b620013c1919062002ff5565b620013cd919062002fd4565b9050670de0b6b3a764000060055482620013e8919062002ff5565b620013f4919062002fd4565b949350505050565b600b60209081526000928352604080842090915290825290205481565b60055481565b600a60209081526000928352604080842090915290825290205481565b816001600160a01b038116331415620014695760405162461bcd60e51b8152600401620005e99062002f79565b6001600160a01b038084166000908152600c60209081526040808320938616835292905220546200149957600080fd5b6001600160a01b03808316600090815260096020908152604080832054600254825163501ad8ff60e11b8152925191861695169263a035b1fe9260048082019391829003018186803b158015620014ef57600080fd5b505afa15801562001504573d6000803e3d6000fd5b505050506040513d601f19601f820116820180604052508101906200152a919062002afa565b6001600160a01b03808716600090815260066020908152604080832093891683529290529081205491925090670de0b6b3a7640000906200156d90849062002ff5565b62001579919062002fd4565b90506000670de0b6b3a7640000846001600160a01b031663a035b1fe6040518163ffffffff1660e01b815260040160206040518083038186803b158015620015c057600080fd5b505afa158015620015d5573d6000803e3d6000fd5b505050506040513d601f19601f82011682018060405250810190620015fb919062002afa565b6001600160a01b03808a166000908152600a60209081526040808320938c16835292905220546200162d919062002ff5565b62001639919062002fd4565b6001600160a01b03871660009081526007602052604090205490915060649062001664908362002ff5565b62001670919062002fd4565b821080620016e057506001600160a01b038616600090815260086020526040902054606490620016a1908362002ff5565b620016ad919062002fd4565b82108015620016e057506001600160a01b038088166000908152600c60209081526040808320938a168352929052205442115b620016ff5760405162461bcd60e51b8152600401620005e99062002d33565b6001546003546001600160a01b0389811660009081526006602090815260408083208c851684529091529081902054905163095ea7b360e01b81529382169363095ea7b393620017559316919060040162002c7b565b602060405180830381600087803b1580156200177057600080fd5b505af115801562001785573d6000803e3d6000fd5b505050506040513d601f19601f82011682018060405250810190620017ab919062002929565b506000620017bb600a8362002fd4565b9050620017cb8789338462000bd8565b620017d8873383620025e4565b6001600160a01b038089166000818152600a60209081526040808320948c1680845294825280832054938352600b82528083209483529390529182208054919290916200182790849062002fb9565b90915550506001600160a01b0380891660009081526006602090815260408083208b85168452825280832054815163501ad8ff60e11b815291519094670de0b6b3a764000093908b169263a035b1fe9260048083019392829003018186803b1580156200189357600080fd5b505afa158015620018a8573d6000803e3d6000fd5b505050506040513d601f19601f82011682018060405250810190620018ce919062002afa565b6001600160a01b03808d166000908152600b60209081526040808320938f168352929052205462001900919062002ff5565b6200190c919062002fd4565b9050600360009054906101000a90046001600160a01b03166001600160a01b03166309a7a4308b8b600160009054906101000a90046001600160a01b031633878b888e6040518963ffffffff1660e01b81526004016200197498979695949392919062002bbc565b600060405180830381600087803b1580156200198f57600080fd5b505af1158015620019a4573d6000803e3d6000fd5b50505050620019b48a8a620027f1565b336001600160a01b03168a6001600160a01b03167f67de72df4555d6100790695c44d6b25b62d1787a37c458d832b980b8442430b58b604051620019f9919062002ba8565b60405180910390a350505050505050505050565b6000546001600160a01b031681565b60086020526000908152604090205481565b6040516323b872dd60e01b81526001600160a01b038316906323b872dd9062001a609033903090869060040162002c06565b602060405180830381600087803b15801562001a7b57600080fd5b505af115801562001a90573d6000803e3d6000fd5b505050506040513d601f19601f8201168201806040525081019062001ab6919062002929565b62001ad55760405162461bcd60e51b8152600401620005e99062002e65565b604051630852cd8d60e31b81526001600160a01b038316906342966c689062001b0390849060040162002fb0565b600060405180830381600087803b15801562001b1e57600080fd5b505af115801562001b33573d6000803e3d6000fd5b5050336000908152600a602090815260408083206001600160a01b03881684529091528120805485945090925062001b6d90849062003017565b909155505060405133907fbac40739b0d4ca32fa2d82fc91630465ba3eddd1598da6fca393b26fb63b94539062001ba8908590859062002c7b565b60405180910390a25050565b505050565b6000546001600160a01b0316331462001be65760405162461bcd60e51b8152600401620005e99062002de4565b81811162001c085760405162461bcd60e51b8152600401620005e99062002f27565b6001600160a01b03909216600090815260076020908152604080832093909355600890522055565b60015482906001600160a01b038083169116141562001c635760405162461bcd60e51b8152600401620005e99062002dbd565b60015460405163095ea7b360e01b81526001600160a01b039091169063095ea7b39062001c97903390869060040162002c7b565b602060405180830381600087803b15801562001cb257600080fd5b505af115801562001cc7573d6000803e3d6000fd5b505050506040513d601f19601f8201168201806040525081019062001ced919062002929565b506001546040516323b872dd60e01b81526001600160a01b03909116906323b872dd9062001d249033903090879060040162002c06565b602060405180830381600087803b15801562001d3f57600080fd5b505af115801562001d54573d6000803e3d6000fd5b505050506040513d601f19601f8201168201806040525081019062001d7a919062002929565b62001d995760405162461bcd60e51b8152600401620005e99062002e65565b3360009081526006602090815260408083206001600160a01b03871684529091528120805484929062001dce90849062002fb9565b909155505060405133907f8454282b08531cdbd2142ac846ae921ccea242b7bc97cc8fe966bf8d57f5efd99062001e09908690869062002c7b565b60405180910390a2505050565b600b81565b3360009081526006602090815260408083206001600160a01b0385168452909152812054158062001e6d5750336000908152600a602090815260408083206001600160a01b0386168452909152902054155b1562001e7c575060006200051c565b6000670de0b6b3a7640000600260009054906101000a90046001600160a01b03166001600160a01b031663a035b1fe6040518163ffffffff1660e01b815260040160206040518083038186803b15801562001ed657600080fd5b505afa15801562001eeb573d6000803e3d6000fd5b505050506040513d601f19601f8201168201806040525081019062001f11919062002afa565b3360009081526006602090815260408083206001600160a01b038916845290915290205462001f41919062002ff5565b62001f4d919062002fd4565b6001600160a01b03808516600090815260096020908152604080832054815163501ad8ff60e11b815291519596509294670de0b6b3a764000094939093169263a035b1fe92600480840193919291829003018186803b15801562001fb057600080fd5b505afa15801562001fc5573d6000803e3d6000fd5b505050506040513d601f19601f8201168201806040525081019062001feb919062002afa565b336000908152600a602090815260408083206001600160a01b038a1684529091529020546200201b919062002ff5565b62002027919062002fd4565b9050620013f4816200204284670de0b6b3a764000062002833565b9062002841565b6001546001600160a01b031681565b6729a2241af62c000081565b3360009081526006602090815260408083206001600160a01b0386168452909152902054811115620020aa5760405162461bcd60e51b8152600401620005e99062002e8e565b6000670de0b6b3a7640000600260009054906101000a90046001600160a01b03166001600160a01b031663a035b1fe6040518163ffffffff1660e01b815260040160206040518083038186803b1580156200210457600080fd5b505afa15801562002119573d6000803e3d6000fd5b505050506040513d601f19601f820116820180604052508101906200213f919062002afa565b3360009081526006602090815260408083206001600160a01b03891684529091529020546200217090859062003017565b6200217c919062002ff5565b62002188919062002fd4565b6001600160a01b03808516600090815260096020908152604080832054815163501ad8ff60e11b815291519596509294670de0b6b3a764000094939093169263a035b1fe92600480840193919291829003018186803b158015620021eb57600080fd5b505afa15801562002200573d6000803e3d6000fd5b505050506040513d601f19601f8201168201806040525081019062002226919062002afa565b336000908152600a602090815260408083206001600160a01b038a16845290915290205462002256919062002ff5565b62002262919062002fd4565b6001600160a01b0385166000908152600760205260409020549091506064906200228d908362002ff5565b62002299919062002fd4565b821015620022bb5760405162461bcd60e51b8152600401620005e99062002f01565b3360009081526006602090815260408083206001600160a01b038816845290915281208054859290620022f090849062003017565b909155505060015460405163a9059cbb60e01b81526001600160a01b039091169063a9059cbb9062002329903390879060040162002c7b565b602060405180830381600087803b1580156200234457600080fd5b505af115801562002359573d6000803e3d6000fd5b505050506040513d601f19601f820116820180604052508101906200237f919062002929565b50336001600160a01b03167f39232a7eed2ad0ea7afab6b1edffa01bbd4a635bf106ac38ec5261d8d691f4a08585604051620023bd92919062002c7b565b60405180910390a250505050565b600082151580620023db57508115155b620023fa5760405162461bcd60e51b8152600401620005e99062002f4f565b6000670de0b6b3a7640000600260009054906101000a90046001600160a01b03166001600160a01b031663a035b1fe6040518163ffffffff1660e01b815260040160206040518083038186803b1580156200245457600080fd5b505afa15801562002469573d6000803e3d6000fd5b505050506040513d601f19601f820116820180604052508101906200248f919062002afa565b3360009081526006602090815260408083206001600160a01b038b168452909152902054620024c090879062002fb9565b620024cc919062002ff5565b620024d8919062002fd4565b6001600160a01b03808716600090815260096020908152604080832054815163501ad8ff60e11b815291519596509294670de0b6b3a764000094939093169263a035b1fe92600480840193919291829003018186803b1580156200253b57600080fd5b505afa15801562002550573d6000803e3d6000fd5b505050506040513d601f19601f8201168201806040525081019062002576919062002afa565b336000908152600a602090815260408083206001600160a01b038c168452909152902054620025a790879062002fb9565b620025b3919062002ff5565b620025bf919062002fd4565b9050620025da816200204284670de0b6b3a764000062002833565b9695505050505050565b6000620025f360648362002fd4565b6200260090603c62002ff5565b60405163a9059cbb60e01b81529091506001600160a01b0385169063a9059cbb9062002633908690859060040162002c7b565b602060405180830381600087803b1580156200264e57600080fd5b505af115801562002663573d6000803e3d6000fd5b505050506040513d601f19601f8201168201806040525081019062002689919062002929565b620026a85760405162461bcd60e51b8152600401620005e99062002d86565b50505050565b600660209081526000928352604080842090915290825290205481565b600081620026ed5760405162461bcd60e51b8152600401620005e99062002f4f565b6000670de0b6b3a7640000600260009054906101000a90046001600160a01b03166001600160a01b031663a035b1fe6040518163ffffffff1660e01b815260040160206040518083038186803b1580156200274757600080fd5b505afa1580156200275c573d6000803e3d6000fd5b505050506040513d601f19601f8201168201806040525081019062002782919062002afa565b3360009081526006602090815260408083206001600160a01b038a168452909152902054620027b390869062002fb9565b620027bf919062002ff5565b620027cb919062002fd4565b905060055481620027dd919062002fd4565b620013f490670de0b6b3a764000062002ff5565b6001600160a01b03918216600081815260066020908152604080832094909516808352938152848220829055918152600a825283812092815291905290812055565b6000620005a6828462002ff5565b6000620005a6828462002fd4565b6113a2806200306183390190565b60008083601f8401126200286f578182fd5b50813567ffffffffffffffff81111562002887578182fd5b602083019150836020828501011115620028a057600080fd5b9250929050565b60008060408385031215620028ba578182fd5b8235620028c78162003047565b91506020830135620028d98162003047565b809150509250929050565b600080600060608486031215620028f9578081fd5b8335620029068162003047565b92506020840135620029188162003047565b929592945050506040919091013590565b6000602082840312156200293b578081fd5b81518015158114620005a6578182fd5b6000602082840312156200295d578081fd5b8135620005a68162003047565b6000806000806080858703121562002980578081fd5b84356200298d8162003047565b935060208501356200299f8162003047565b92506040850135620029b18162003047565b9396929550929360600135925050565b600080600060608486031215620028f9578283fd5b60008060408385031215620029e9578182fd5b8235620029f68162003047565b946020939093013593505050565b60008060006060848603121562002a19578283fd5b833562002a268162003047565b95602085013595506040909401359392505050565b60008060008060008060008060c0898b03121562002a57578384fd5b883567ffffffffffffffff8082111562002a6f578586fd5b62002a7d8c838d016200285d565b909a50985060208b013591508082111562002a96578586fd5b5062002aa58b828c016200285d565b90975095505060408901359350606089013592506080890135915060a089013562002ad08162003047565b809150509295985092959890939650565b60006020828403121562002af3578081fd5b5035919050565b60006020828403121562002b0c578081fd5b5051919050565b60008060008060008060c0878903121562002b2c578182fd5b86359550602087013562002b408162003047565b9450604087013562002b528162003047565b9350606087013562002b648162003047565b9598949750929560808101359460a0909101359350915050565b60008284528282602086013780602084860101526020601f19601f85011685010190509392505050565b6001600160a01b0391909116815260200190565b6001600160a01b03988916815296881660208801529487166040870152929095166060850152608084015260a083019390935260c082019290925260e08101919091526101000190565b6001600160a01b039384168152919092166020820152604081019190915260600190565b600060018060a01b0380891683526080602084015262002c4f60808401888a62002b7e565b838103604085015262002c6481878962002b7e565b925050808416606084015250979650505050505050565b6001600160a01b03929092168252602082015260400190565b60006060825262002caa60608301878962002b7e565b828103602084015262002cbf81868862002b7e565b9150508260408301529695505050505050565b6020808252601a908201527f576974686f757420636f6c6c61746572616c206465706f736974000000000000604082015260600190565b60208082526010908201526f10589bdd99481b585e08185b5bdd5b9d60821b604082015260600190565b6020808252600c908201526b61626f76652063526174696f60a01b604082015260600190565b6020808252601390820152724f6e6c792061756374696f6e20686f7573652160681b604082015260600190565b60208082526019908201527f6661696c6564207472616e7366657220696e63656e7469766500000000000000604082015260600190565b6020808252600d908201526c34b73b30b634b2103a37b5b2b760991b604082015260600190565b6020808252600c908201526b1d5b985d5d1a1bdc9a5e995960a21b604082015260600190565b60208082526013908201527241626f76652063526174696f5061737369766f60681b604082015260600190565b602080825260149082015273496e76616c69642063526174696f41637469766560601b604082015260600190565b6020808252600f908201526e1d1c985b9cd9995c8819985a5b1959608a1b604082015260600190565b602080825260159082015274496e73756666696369656e74207175616e7469747960581b604082015260600190565b60208082526024908201527f557365722063616e6e6f7420626520666c616767656420666f72206c697175696040820152636461746560e01b606082015260800190565b6020808252600c908201526b62656c6f772063526174696f60a01b604082015260600190565b6020808252600e908201526d696e76616c69642063526174696f60901b604082015260600190565b60208082526010908201526f496e636f72726563742076616c75657360801b604082015260600190565b6020808252601f908201527f53656e6465722063616e6e6f7420626520746865206c69717569646174656400604082015260600190565b90815260200190565b6000821982111562002fcf5762002fcf62003031565b500190565b60008262002ff057634e487b7160e01b81526012600452602481fd5b500490565b600081600019048311821515161562003012576200301262003031565b500290565b6000828210156200302c576200302c62003031565b500390565b634e487b7160e01b600052601160045260246000fd5b6001600160a01b03811681146200305d57600080fd5b5056fe60806040523480156200001157600080fd5b50604051620013a2380380620013a2833981016040819052620000349162000330565b8251839083906200004d906003906020850190620001df565b50805162000063906004906020840190620001df565b505050620000806200007a620000a260201b60201c565b620000a6565b6005805460ff60a01b19169055620000993382620000f8565b50505062000458565b3390565b600580546001600160a01b038381166001600160a01b0319831681179093556040519116919082907f8be0079c531659141344cd1fd0a4f28419497f9722a3daafe3b4186f6b6457e090600090a35050565b6001600160a01b0382166200012a5760405162461bcd60e51b81526004016200012190620003a0565b60405180910390fd5b6200013860008383620001da565b80600260008282546200014c9190620003e0565b90915550506001600160a01b038216600090815260208190526040812080548392906200017b908490620003e0565b90915550506040516001600160a01b038316906000907fddf252ad1be2c89b69c2b068fc378daa952ba7f163c4a11628f55a4df523b3ef90620001c0908590620003d7565b60405180910390a3620001d660008383620001da565b5050565b505050565b828054620001ed9062000405565b90600052602060002090601f0160209004810192826200021157600085556200025c565b82601f106200022c57805160ff19168380011785556200025c565b828001600101855582156200025c579182015b828111156200025c5782518255916020019190600101906200023f565b506200026a9291506200026e565b5090565b5b808211156200026a57600081556001016200026f565b600082601f83011262000296578081fd5b81516001600160401b0380821115620002b357620002b362000442565b6040516020601f8401601f1916820181018381118382101715620002db57620002db62000442565b6040528382528584018101871015620002f2578485fd5b8492505b83831015620003155785830181015182840182015291820191620002f6565b838311156200032657848185840101525b5095945050505050565b60008060006060848603121562000345578283fd5b83516001600160401b03808211156200035c578485fd5b6200036a8783880162000285565b9450602086015191508082111562000380578384fd5b506200038f8682870162000285565b925050604084015190509250925092565b6020808252601f908201527f45524332303a206d696e7420746f20746865207a65726f206164647265737300604082015260600190565b90815260200190565b600082198211156200040057634e487b7160e01b81526011600452602481fd5b500190565b6002810460018216806200041a57607f821691505b602082108114156200043c57634e487b7160e01b600052602260045260246000fd5b50919050565b634e487b7160e01b600052604160045260246000fd5b610f3a80620004686000396000f3fe608060405234801561001057600080fd5b506004361061010b5760003560e01c80635c975abb116100a257806395d89b411161007157806395d89b41146101fe578063a457c2d714610206578063a9059cbb14610219578063dd62ed3e1461022c578063f2fde38b1461023f5761010b565b80635c975abb146101c657806370a08231146101ce578063715018a6146101e15780638da5cb5b146101e95761010b565b8063313ce567116100de578063313ce56714610176578063395093511461018b57806340c10f191461019e57806342966c68146101b35761010b565b806306fdde0314610110578063095ea7b31461012e57806318160ddd1461014e57806323b872dd14610163575b600080fd5b610118610252565b6040516101259190610b04565b60405180910390f35b61014161013c366004610aa4565b6102e4565b6040516101259190610af9565b610156610301565b6040516101259190610e6d565b610141610171366004610a69565b610307565b61017e6103a0565b6040516101259190610e76565b610141610199366004610aa4565b6103a5565b6101b16101ac366004610aa4565b6103f9565b005b6101b16101c1366004610acd565b610446565b610141610453565b6101566101dc366004610a16565b610463565b6101b1610482565b6101f16104cd565b6040516101259190610ae5565b6101186104dc565b610141610214366004610aa4565b6104eb565b610141610227366004610aa4565b610564565b61015661023a366004610a37565b610578565b6101b161024d366004610a16565b6105a3565b60606003805461026190610eb3565b80601f016020809104026020016040519081016040528092919081815260200182805461028d90610eb3565b80156102da5780601f106102af576101008083540402835291602001916102da565b820191906000526020600020905b8154815290600101906020018083116102bd57829003601f168201915b5050505050905090565b60006102f86102f1610611565b8484610615565b50600192915050565b60025490565b60006103148484846106c9565b6001600160a01b038416600090815260016020526040812081610335610611565b6001600160a01b03166001600160a01b03168152602001908152602001600020549050828110156103815760405162461bcd60e51b815260040161037890610caa565b60405180910390fd5b6103958561038d610611565b858403610615565b506001949350505050565b601290565b60006102f86103b2610611565b8484600160006103c0610611565b6001600160a01b03908116825260208083019390935260409182016000908120918b16815292529020546103f49190610e84565b610615565b610401610611565b6001600160a01b03166104126104cd565b6001600160a01b0316146104385760405162461bcd60e51b815260040161037890610cf2565b61044282826107f3565b5050565b61045033826108bb565b50565b600554600160a01b900460ff1690565b6001600160a01b0381166000908152602081905260409020545b919050565b61048a610611565b6001600160a01b031661049b6104cd565b6001600160a01b0316146104c15760405162461bcd60e51b815260040161037890610cf2565b6104cb60006109ad565b565b6005546001600160a01b031690565b60606004805461026190610eb3565b600080600160006104fa610611565b6001600160a01b03908116825260208083019390935260409182016000908120918816815292529020549050828110156105465760405162461bcd60e51b815260040161037890610df1565b61055a610551610611565b85858403610615565b5060019392505050565b60006102f8610571610611565b84846106c9565b6001600160a01b03918216600090815260016020908152604080832093909416825291909152205490565b6105ab610611565b6001600160a01b03166105bc6104cd565b6001600160a01b0316146105e25760405162461bcd60e51b815260040161037890610cf2565b6001600160a01b0381166106085760405162461bcd60e51b815260040161037890610bdc565b610450816109ad565b3390565b6001600160a01b03831661063b5760405162461bcd60e51b815260040161037890610dad565b6001600160a01b0382166106615760405162461bcd60e51b815260040161037890610c22565b6001600160a01b0380841660008181526001602090815260408083209487168084529490915290819020849055517f8c5be1e5ebec7d5bd14f71427d1e84f3dd0314c0f7b2291e5b200ac8c7c3b925906106bc908590610e6d565b60405180910390a3505050565b6001600160a01b0383166106ef5760405162461bcd60e51b815260040161037890610d68565b6001600160a01b0382166107155760405162461bcd60e51b815260040161037890610b57565b6107208383836109a8565b6001600160a01b038316600090815260208190526040902054818110156107595760405162461bcd60e51b815260040161037890610c64565b6001600160a01b03808516600090815260208190526040808220858503905591851681529081208054849290610790908490610e84565b92505081905550826001600160a01b0316846001600160a01b03167fddf252ad1be2c89b69c2b068fc378daa952ba7f163c4a11628f55a4df523b3ef846040516107da9190610e6d565b60405180910390a36107ed8484846109a8565b50505050565b6001600160a01b0382166108195760405162461bcd60e51b815260040161037890610e36565b610825600083836109a8565b80600260008282546108379190610e84565b90915550506001600160a01b03821660009081526020819052604081208054839290610864908490610e84565b90915550506040516001600160a01b038316906000907fddf252ad1be2c89b69c2b068fc378daa952ba7f163c4a11628f55a4df523b3ef906108a7908590610e6d565b60405180910390a3610442600083836109a8565b6001600160a01b0382166108e15760405162461bcd60e51b815260040161037890610d27565b6108ed826000836109a8565b6001600160a01b038216600090815260208190526040902054818110156109265760405162461bcd60e51b815260040161037890610b9a565b6001600160a01b0383166000908152602081905260408120838303905560028054849290610955908490610e9c565b90915550506040516000906001600160a01b038516907fddf252ad1be2c89b69c2b068fc378daa952ba7f163c4a11628f55a4df523b3ef90610998908690610e6d565b60405180910390a36109a8836000845b505050565b600580546001600160a01b038381166001600160a01b0319831681179093556040519116919082907f8be0079c531659141344cd1fd0a4f28419497f9722a3daafe3b4186f6b6457e090600090a35050565b80356001600160a01b038116811461047d57600080fd5b600060208284031215610a27578081fd5b610a30826109ff565b9392505050565b60008060408385031215610a49578081fd5b610a52836109ff565b9150610a60602084016109ff565b90509250929050565b600080600060608486031215610a7d578081fd5b610a86846109ff565b9250610a94602085016109ff565b9150604084013590509250925092565b60008060408385031215610ab6578182fd5b610abf836109ff565b946020939093013593505050565b600060208284031215610ade578081fd5b5035919050565b6001600160a01b0391909116815260200190565b901515815260200190565b6000602080835283518082850152825b81811015610b3057858101830151858201604001528201610b14565b81811115610b415783604083870101525b50601f01601f1916929092016040019392505050565b60208082526023908201527f45524332303a207472616e7366657220746f20746865207a65726f206164647260408201526265737360e81b606082015260800190565b60208082526022908201527f45524332303a206275726e20616d6f756e7420657863656564732062616c616e604082015261636560f01b606082015260800190565b60208082526026908201527f4f776e61626c653a206e6577206f776e657220697320746865207a65726f206160408201526564647265737360d01b606082015260800190565b60208082526022908201527f45524332303a20617070726f766520746f20746865207a65726f206164647265604082015261737360f01b606082015260800190565b60208082526026908201527f45524332303a207472616e7366657220616d6f756e7420657863656564732062604082015265616c616e636560d01b606082015260800190565b60208082526028908201527f45524332303a207472616e7366657220616d6f756e74206578636565647320616040820152676c6c6f77616e636560c01b606082015260800190565b6020808252818101527f4f776e61626c653a2063616c6c6572206973206e6f7420746865206f776e6572604082015260600190565b60208082526021908201527f45524332303a206275726e2066726f6d20746865207a65726f206164647265736040820152607360f81b606082015260800190565b60208082526025908201527f45524332303a207472616e736665722066726f6d20746865207a65726f206164604082015264647265737360d81b606082015260800190565b60208082526024908201527f45524332303a20617070726f76652066726f6d20746865207a65726f206164646040820152637265737360e01b606082015260800190565b60208082526025908201527f45524332303a2064656372656173656420616c6c6f77616e63652062656c6f77604082015264207a65726f60d81b606082015260800190565b6020808252601f908201527f45524332303a206d696e7420746f20746865207a65726f206164647265737300604082015260600190565b90815260200190565b60ff91909116815260200190565b60008219821115610e9757610e97610eee565b500190565b600082821015610eae57610eae610eee565b500390565b600281046001821680610ec757607f821691505b60208210811415610ee857634e487b7160e01b600052602260045260246000fd5b50919050565b634e487b7160e01b600052601160045260246000fdfea2646970667358221220099137bc4306990e70f15b1d130846e5c438011721075a4feb660a368e69991964736f6c63430008000033a264697066735822122007961046e688072c445f8e75da5e3dcfbceba0113db3e7d9834e21396eb3f20964736f6c63430008000033",
  "linkReferences": {},
  "deployedLinkReferences": {}
}