{
  "_format": "hh-sol-artifact-1",
  "contractName": "Minter",
  "sourceName": "contracts/Minter.sol",
  "abi": [
    {
      "inputs": [
        {
          "internalType": "address",
          "name": "collateralToken_",
          "type": "address"
        },
        {
          "internalType": "address",
          "name": "collateralFeed_",
          "type": "address"
        },
        {
          "internalType": "address",
          "name": "auctionHouse_",
          "type": "address"
        }
      ],
      "stateMutability": "nonpayable",
      "type": "constructor"
    },
    {
      "anonymous": false,
      "inputs": [
        {
          "indexed": true,
          "internalType": "address",
          "name": "account",
          "type": "address"
        },
        {
          "indexed": true,
          "internalType": "address",
          "name": "keeper",
          "type": "address"
        },
        {
          "indexed": false,
          "internalType": "uint256",
          "name": "deadline",
          "type": "uint256"
        }
      ],
      "name": "AccountFlaggedForLiquidation",
      "type": "event"
    },
    {
      "anonymous": false,
      "inputs": [
        {
          "indexed": true,
          "internalType": "uint256",
          "name": "id",
          "type": "uint256"
        },
        {
          "indexed": false,
          "internalType": "address",
          "name": "user",
          "type": "address"
        },
        {
          "indexed": false,
          "internalType": "uint256",
          "name": "finished_at",
          "type": "uint256"
        }
      ],
      "name": "AuctionFinish",
      "type": "event"
    },
    {
      "anonymous": false,
      "inputs": [
        {
          "indexed": true,
          "internalType": "address",
          "name": "account",
          "type": "address"
        },
        {
          "indexed": false,
          "internalType": "address",
          "name": "token",
          "type": "address"
        },
        {
          "indexed": false,
          "internalType": "uint256",
          "name": "amount",
          "type": "uint256"
        }
      ],
      "name": "Burn",
      "type": "event"
    },
    {
      "anonymous": false,
      "inputs": [
        {
          "indexed": false,
          "internalType": "address",
          "name": "token",
          "type": "address"
        },
        {
          "indexed": false,
          "internalType": "string",
          "name": "name",
          "type": "string"
        },
        {
          "indexed": false,
          "internalType": "string",
          "name": "symbol",
          "type": "string"
        },
        {
          "indexed": false,
          "internalType": "address",
          "name": "feed",
          "type": "address"
        }
      ],
      "name": "CreateSynth",
      "type": "event"
    },
    {
      "anonymous": false,
      "inputs": [
        {
          "indexed": true,
          "internalType": "address",
          "name": "account",
          "type": "address"
        },
        {
          "indexed": false,
          "internalType": "address",
          "name": "token",
          "type": "address"
        },
        {
          "indexed": false,
          "internalType": "uint256",
          "name": "amount",
          "type": "uint256"
        }
      ],
      "name": "DepositedCollateral",
      "type": "event"
    },
    {
      "anonymous": false,
      "inputs": [
        {
          "indexed": true,
          "internalType": "address",
          "name": "accountLiquidated",
          "type": "address"
        },
        {
          "indexed": true,
          "internalType": "address",
          "name": "accountFrom",
          "type": "address"
        },
        {
          "indexed": false,
          "internalType": "address",
          "name": "token",
          "type": "address"
        }
      ],
      "name": "Liquidate",
      "type": "event"
    },
    {
      "anonymous": false,
      "inputs": [
        {
          "indexed": true,
          "internalType": "address",
          "name": "account",
          "type": "address"
        },
        {
          "indexed": false,
          "internalType": "uint256",
          "name": "totalAmount",
          "type": "uint256"
        }
      ],
      "name": "Mint",
      "type": "event"
    },
    {
      "anonymous": false,
      "inputs": [
        {
          "indexed": true,
          "internalType": "address",
          "name": "account",
          "type": "address"
        },
        {
          "indexed": false,
          "internalType": "address",
          "name": "token",
          "type": "address"
        },
        {
          "indexed": false,
          "internalType": "uint256",
          "name": "amount",
          "type": "uint256"
        }
      ],
      "name": "WithdrawnCollateral",
      "type": "event"
    },
    {
      "inputs": [],
      "name": "FLAG_TIP",
      "outputs": [
        {
          "internalType": "uint256",
          "name": "",
          "type": "uint256"
        }
      ],
      "stateMutability": "view",
      "type": "function"
    },
    {
      "inputs": [],
      "name": "PENALTY_FEE",
      "outputs": [
        {
          "internalType": "uint256",
          "name": "",
          "type": "uint256"
        }
      ],
      "stateMutability": "view",
      "type": "function"
    },
    {
      "inputs": [
        {
          "internalType": "contract GTokenERC20",
          "name": "token",
          "type": "address"
        },
        {
          "internalType": "address",
          "name": "user",
          "type": "address"
        },
        {
          "internalType": "address",
          "name": "keeper",
          "type": "address"
        },
        {
          "internalType": "uint256",
          "name": "amount",
          "type": "uint256"
        }
      ],
      "name": "_mintPenalty",
      "outputs": [],
      "stateMutability": "nonpayable",
      "type": "function"
    },
    {
      "inputs": [
        {
          "internalType": "contract GTokenERC20",
          "name": "token",
          "type": "address"
        },
        {
          "internalType": "address",
          "name": "keeper",
          "type": "address"
        },
        {
          "internalType": "uint256",
          "name": "amount",
          "type": "uint256"
        }
      ],
      "name": "_transferLiquidate",
      "outputs": [],
      "stateMutability": "nonpayable",
      "type": "function"
    },
    {
      "inputs": [
        {
          "internalType": "address",
          "name": "debtPool_",
          "type": "address"
        }
      ],
      "name": "addDebtPool",
      "outputs": [],
      "stateMutability": "nonpayable",
      "type": "function"
    },
    {
      "inputs": [
        {
          "internalType": "address",
          "name": "",
          "type": "address"
        },
        {
          "internalType": "contract GTokenERC20",
          "name": "",
          "type": "address"
        }
      ],
      "name": "auctionDebt",
      "outputs": [
        {
          "internalType": "uint256",
          "name": "",
          "type": "uint256"
        }
      ],
      "stateMutability": "view",
      "type": "function"
    },
    {
      "inputs": [
        {
          "internalType": "uint256",
          "name": "auctionId",
          "type": "uint256"
        },
        {
          "internalType": "address",
          "name": "user",
          "type": "address"
        },
        {
          "internalType": "contract GTokenERC20",
          "name": "collateralToken",
          "type": "address"
        },
        {
          "internalType": "contract GTokenERC20",
          "name": "synthToken",
          "type": "address"
        },
        {
          "internalType": "uint256",
          "name": "collateralAmount",
          "type": "uint256"
        },
        {
          "internalType": "uint256",
          "name": "synthAmount",
          "type": "uint256"
        }
      ],
      "name": "auctionFinish",
      "outputs": [],
      "stateMutability": "nonpayable",
      "type": "function"
    },
    {
      "inputs": [
        {
          "internalType": "address",
          "name": "from",
          "type": "address"
        },
        {
          "internalType": "contract GTokenERC20",
          "name": "token",
          "type": "address"
        }
      ],
      "name": "balanceOfSynth",
      "outputs": [
        {
          "internalType": "uint256",
          "name": "",
          "type": "uint256"
        }
      ],
      "stateMutability": "view",
      "type": "function"
    },
    {
      "inputs": [
        {
          "internalType": "contract GTokenERC20",
          "name": "token",
          "type": "address"
        },
        {
          "internalType": "uint256",
          "name": "amount",
          "type": "uint256"
        }
      ],
      "name": "burn",
      "outputs": [],
      "stateMutability": "nonpayable",
      "type": "function"
    },
    {
      "inputs": [
        {
          "internalType": "contract GTokenERC20",
          "name": "",
          "type": "address"
        }
      ],
      "name": "cRatioActive",
      "outputs": [
        {
          "internalType": "uint256",
          "name": "",
          "type": "uint256"
        }
      ],
      "stateMutability": "view",
      "type": "function"
    },
    {
      "inputs": [
        {
          "internalType": "contract GTokenERC20",
          "name": "",
          "type": "address"
        }
      ],
      "name": "cRatioPassive",
      "outputs": [
        {
          "internalType": "uint256",
          "name": "",
          "type": "uint256"
        }
      ],
      "stateMutability": "view",
      "type": "function"
    },
    {
      "inputs": [
        {
          "internalType": "address",
          "name": "",
          "type": "address"
        },
        {
          "internalType": "contract GTokenERC20",
          "name": "",
          "type": "address"
        }
      ],
      "name": "collateralBalance",
      "outputs": [
        {
          "internalType": "uint256",
          "name": "",
          "type": "uint256"
        }
      ],
      "stateMutability": "view",
      "type": "function"
    },
    {
      "inputs": [],
      "name": "collateralFeed",
      "outputs": [
        {
          "internalType": "contract Feed",
          "name": "",
          "type": "address"
        }
      ],
      "stateMutability": "view",
      "type": "function"
    },
    {
      "inputs": [],
      "name": "collateralToken",
      "outputs": [
        {
          "internalType": "contract GTokenERC20",
          "name": "",
          "type": "address"
        }
      ],
      "stateMutability": "view",
      "type": "function"
    },
    {
      "inputs": [
        {
          "internalType": "string",
          "name": "name",
          "type": "string"
        },
        {
          "internalType": "string",
          "name": "symbol",
          "type": "string"
        },
        {
          "internalType": "uint256",
          "name": "initialSupply",
          "type": "uint256"
        },
        {
          "internalType": "uint256",
          "name": "cRatioActive_",
          "type": "uint256"
        },
        {
          "internalType": "uint256",
          "name": "cRatioPassive_",
          "type": "uint256"
        },
        {
          "internalType": "contract Feed",
          "name": "feed",
          "type": "address"
        }
      ],
      "name": "createSynth",
      "outputs": [],
      "stateMutability": "nonpayable",
      "type": "function"
    },
    {
      "inputs": [
        {
          "internalType": "contract GTokenERC20",
          "name": "token",
          "type": "address"
        },
        {
          "internalType": "uint256",
          "name": "amount",
          "type": "uint256"
        }
      ],
      "name": "debtPoolBurn",
      "outputs": [],
      "stateMutability": "nonpayable",
      "type": "function"
    },
    {
      "inputs": [
        {
          "internalType": "contract GTokenERC20",
          "name": "token",
          "type": "address"
        },
        {
          "internalType": "uint256",
          "name": "amount",
          "type": "uint256"
        }
      ],
      "name": "debtPoolMint",
      "outputs": [],
      "stateMutability": "nonpayable",
      "type": "function"
    },
    {
      "inputs": [
        {
          "internalType": "contract GTokenERC20",
          "name": "",
          "type": "address"
        }
      ],
      "name": "feeds",
      "outputs": [
        {
          "internalType": "contract Feed",
          "name": "",
          "type": "address"
        }
      ],
      "stateMutability": "view",
      "type": "function"
    },
    {
      "inputs": [
        {
          "internalType": "address",
          "name": "user",
          "type": "address"
        },
        {
          "internalType": "contract GTokenERC20",
          "name": "token",
          "type": "address"
        }
      ],
      "name": "flagLiquidate",
      "outputs": [],
      "stateMutability": "nonpayable",
      "type": "function"
    },
    {
      "inputs": [
        {
          "internalType": "contract GTokenERC20",
          "name": "token",
          "type": "address"
        }
      ],
      "name": "getCRatio",
      "outputs": [
        {
          "internalType": "uint256",
          "name": "",
          "type": "uint256"
        }
      ],
      "stateMutability": "view",
      "type": "function"
    },
    {
      "inputs": [
        {
          "internalType": "uint256",
          "name": "index",
          "type": "uint256"
        }
      ],
      "name": "getSynth",
      "outputs": [
        {
          "internalType": "contract GTokenERC20",
          "name": "",
          "type": "address"
        }
      ],
      "stateMutability": "view",
      "type": "function"
    },
    {
      "inputs": [
        {
          "internalType": "address",
          "name": "user",
          "type": "address"
        },
        {
          "internalType": "contract GTokenERC20",
          "name": "token",
          "type": "address"
        }
      ],
      "name": "liquidate",
      "outputs": [],
      "stateMutability": "nonpayable",
      "type": "function"
    },
    {
      "inputs": [
        {
          "internalType": "contract GTokenERC20",
          "name": "token",
          "type": "address"
        },
        {
          "internalType": "uint256",
          "name": "amount",
          "type": "uint256"
        }
      ],
      "name": "maximumByCollateral",
      "outputs": [
        {
          "internalType": "uint256",
          "name": "",
          "type": "uint256"
        }
      ],
      "stateMutability": "view",
      "type": "function"
    },
    {
      "inputs": [
        {
          "internalType": "contract GTokenERC20",
          "name": "token",
          "type": "address"
        },
        {
          "internalType": "uint256",
          "name": "amount",
          "type": "uint256"
        }
      ],
      "name": "maximumByDebt",
      "outputs": [
        {
          "internalType": "uint256",
          "name": "",
          "type": "uint256"
        }
      ],
      "stateMutability": "view",
      "type": "function"
    },
    {
      "inputs": [
        {
          "internalType": "contract GTokenERC20",
          "name": "token",
          "type": "address"
        },
        {
          "internalType": "uint256",
          "name": "amountToDeposit",
          "type": "uint256"
        },
        {
          "internalType": "uint256",
          "name": "amountToMint",
          "type": "uint256"
        }
      ],
      "name": "mint",
      "outputs": [],
      "stateMutability": "nonpayable",
      "type": "function"
    },
    {
      "inputs": [],
      "name": "owner",
      "outputs": [
        {
          "internalType": "address",
          "name": "",
          "type": "address"
        }
      ],
      "stateMutability": "view",
      "type": "function"
    },
    {
      "inputs": [
        {
          "internalType": "address",
          "name": "",
          "type": "address"
        },
        {
          "internalType": "contract GTokenERC20",
          "name": "",
          "type": "address"
        }
      ],
      "name": "plrDelay",
      "outputs": [
        {
          "internalType": "uint256",
          "name": "",
          "type": "uint256"
        }
      ],
      "stateMutability": "view",
      "type": "function"
    },
    {
      "inputs": [],
      "name": "ratio",
      "outputs": [
        {
          "internalType": "uint256",
          "name": "",
          "type": "uint256"
        }
      ],
      "stateMutability": "view",
      "type": "function"
    },
    {
      "inputs": [
        {
          "internalType": "address",
          "name": "user",
          "type": "address"
        },
        {
          "internalType": "contract GTokenERC20",
          "name": "token",
          "type": "address"
        },
        {
          "internalType": "uint256",
          "name": "amount",
          "type": "uint256"
        }
      ],
      "name": "settleDebt",
      "outputs": [],
      "stateMutability": "nonpayable",
      "type": "function"
    },
    {
      "inputs": [
        {
          "internalType": "contract GTokenERC20",
          "name": "token",
          "type": "address"
        },
        {
          "internalType": "uint256",
          "name": "amountGHO",
          "type": "uint256"
        },
        {
          "internalType": "uint256",
          "name": "amountGDAI",
          "type": "uint256"
        }
      ],
      "name": "simulateCRatio",
      "outputs": [
        {
          "internalType": "uint256",
          "name": "",
          "type": "uint256"
        }
      ],
      "stateMutability": "view",
      "type": "function"
    },
    {
      "inputs": [
        {
          "internalType": "address",
          "name": "",
          "type": "address"
        },
        {
          "internalType": "contract GTokenERC20",
          "name": "",
          "type": "address"
        }
      ],
      "name": "synthDebt",
      "outputs": [
        {
          "internalType": "uint256",
          "name": "",
          "type": "uint256"
        }
      ],
      "stateMutability": "view",
      "type": "function"
    },
    {
      "inputs": [
        {
          "internalType": "uint256",
          "name": "",
          "type": "uint256"
        }
      ],
      "name": "synths",
      "outputs": [
        {
          "internalType": "contract GTokenERC20",
          "name": "",
          "type": "address"
        }
      ],
      "stateMutability": "view",
      "type": "function"
    },
    {
      "inputs": [
        {
          "internalType": "contract GTokenERC20",
          "name": "token",
          "type": "address"
        },
        {
          "internalType": "uint256",
          "name": "cRatio_",
          "type": "uint256"
        },
        {
          "internalType": "uint256",
          "name": "cRatioPassivo_",
          "type": "uint256"
        }
      ],
      "name": "updateSynthCRatio",
      "outputs": [],
      "stateMutability": "nonpayable",
      "type": "function"
    },
    {
      "inputs": [
        {
          "internalType": "contract GTokenERC20",
          "name": "token",
          "type": "address"
        },
        {
          "internalType": "uint256",
          "name": "amount",
          "type": "uint256"
        }
      ],
      "name": "withdrawnCollateral",
      "outputs": [],
      "stateMutability": "nonpayable",
      "type": "function"
    }
  ],
  "bytecode": "0x6080604052677ce66c50e28400006006553480156200001d57600080fd5b506040516200480e3803806200480e8339810160408190526200004091620000ad565b600180546001600160a01b039485166001600160a01b03199182161790915560028054938516938216939093179092556003805491909316908216179091556000805490911633179055620000f6565b80516001600160a01b0381168114620000a857600080fd5b919050565b600080600060608486031215620000c2578283fd5b620000cd8462000090565b9250620000dd6020850162000090565b9150620000ed6040850162000090565b90509250925092565b61470880620001066000396000f3fe60806040523480156200001157600080fd5b5060043610620002385760003560e01c806384e5fc541162000135578063a7c153a611620000bd578063d4a867c91162000087578063d4a867c914620004b3578063e1b33c7114620004ca578063e4b44c8014620004e1578063e7602b9d14620004f8578063f40d08d7146200050f5762000238565b8063a7c153a61462000471578063a933c5811462000488578063b2016bd4146200049f578063ca20a95b14620004a95762000238565b80639dc29fac11620000ff5780639dc29fac1462000422578063a08c75321462000439578063a2ec90cb1462000450578063a673e31a14620004675762000238565b806384e5fc5414620003d357806386b9d81f14620003ea5780638da5cb5b146200040157806390881922146200040b5762000238565b806330edd96111620001c5578063486a2cdf116200018f578063486a2cdf146200036d5780634e8c1b1c14620003845780636c8cf812146200039b5780637011014f14620003b257806371ca337d14620003c95762000238565b806330edd9611462000311578063337e19f1146200032857806339673d4e146200033f578063398b766a14620003565762000238565b80631492eb7b11620002075780631492eb7b14620002b5578063156e29f614620002cc5780632e74a9b414620002e35780632fba4aa914620002fa5762000238565b8063015fa282146200023d57806305879e8b146200026c5780630a17fb01146200028557806314139c6214620002ab575b600080fd5b620002546200024e36600462002dc0565b62000526565b60405162000263919062002e87565b60405180910390f35b620002836200027d36600462002cb5565b62000567565b005b6200029c6200029636600462002ba5565b6200063f565b604051620002639190620032c6565b62000254620006cb565b62000283620002c636600462002df2565b620006da565b62000283620002dd36600462002ce3565b62000978565b62000283620002f436600462002c49565b62000e77565b620002546200030b36600462002b86565b62000f1f565b620002546200032236600462002dc0565b62000f3a565b620002836200033936600462002ba5565b62000f65565b6200029c6200035036600462002ba5565b620012f7565b6200029c6200036736600462002b86565b62001314565b620002836200037e36600462002cb5565b62001326565b620002836200039536600462002d1a565b620013e6565b6200029c620003ac36600462002cb5565b6200162a565b6200029c620003c336600462002ba5565b6200175b565b6200029c62001778565b6200029c620003e436600462002ba5565b6200177e565b62000283620003fb36600462002ba5565b6200179b565b6200025462001d52565b6200029c6200041c36600462002b86565b62001d61565b620002836200043336600462002cb5565b62001d73565b620002836200044a36600462002be2565b62001ef9565b620002836200046136600462002ce3565b62001efe565b6200029c62001f75565b6200029c6200048236600462002b86565b62001f7a565b620002836200049936600462002b86565b620021a8565b62000254620021f7565b6200029c62002206565b62000283620004c436600462002cb5565b62002212565b6200029c620004db36600462002ce3565b62002561565b62000283620004f236600462002ca0565b6200277a565b6200029c6200050936600462002ba5565b62002844565b6200029c6200052036600462002cb5565b62002861565b6000600582815481106200054a57634e487b7160e01b600052603260045260246000fd5b6000918252602090912001546001600160a01b031690505b919050565b6004546001600160a01b031633146200059d5760405162461bcd60e51b81526004016200059490620030e9565b60405180910390fd5b336000908152600b602090815260408083206001600160a01b038616845290915281208054839290620005d2908490620032cf565b90915550506040516340c10f1960e01b81526001600160a01b038316906340c10f199062000607903390859060040162002f5a565b600060405180830381600087803b1580156200062257600080fd5b505af115801562000637573d6000803e3d6000fd5b505050505050565b6040516370a0823160e01b81526000906001600160a01b038316906370a08231906200067090869060040162002e87565b60206040518083038186803b1580156200068957600080fd5b505afa1580156200069e573d6000803e3d6000fd5b505050506040513d601f19601f82011682018060405250810190620006c4919062002dd9565b9392505050565b6002546001600160a01b031681565b6003546001600160a01b03163314620007075760405162461bcd60e51b8152600401620005949062003038565b6040516323b872dd60e01b81526001600160a01b038516906323b872dd90620007399033903090879060040162002ee5565b602060405180830381600087803b1580156200075457600080fd5b505af115801562000769573d6000803e3d6000fd5b505050506040513d601f19601f820116820180604052508101906200078f919062002c27565b620007ae5760405162461bcd60e51b815260040162000594906200317b565b6040516323b872dd60e01b81526001600160a01b038416906323b872dd90620007e09033903090869060040162002ee5565b602060405180830381600087803b158015620007fb57600080fd5b505af115801562000810573d6000803e3d6000fd5b505050506040513d601f19601f8201168201806040525081019062000836919062002c27565b620008555760405162461bcd60e51b815260040162000594906200317b565b604051630852cd8d60e31b81526001600160a01b038416906342966c689062000883908490600401620032c6565b600060405180830381600087803b1580156200089e57600080fd5b505af1158015620008b3573d6000803e3d6000fd5b505050506001600160a01b038581166000818152600760209081526040808320948816808452948252808320879055928252600c81528282209382529290925281208054839290620009079084906200332d565b90915550506001600160a01b038086166000908152600d602090815260408083209387168352929052818120555186907f6d5f542cd11abe179d932a89d2ae7e156687ee8f417eb229eb9b5a46ba5c4a979062000968908890429062002f5a565b60405180910390a2505050505050565b60015483906001600160a01b0380831691161415620009ab5760405162461bcd60e51b815260040162000594906200309c565b60015460405163095ea7b360e01b81526001600160a01b039091169063095ea7b390620009df903390879060040162002f5a565b602060405180830381600087803b158015620009fa57600080fd5b505af115801562000a0f573d6000803e3d6000fd5b505050506040513d601f19601f8201168201806040525081019062000a35919062002c27565b506001546040516323b872dd60e01b81526001600160a01b03909116906323b872dd9062000a6c9033903090889060040162002ee5565b602060405180830381600087803b15801562000a8757600080fd5b505af115801562000a9c573d6000803e3d6000fd5b505050506040513d601f19601f8201168201806040525081019062000ac2919062002c27565b62000ae15760405162461bcd60e51b815260040162000594906200317b565b3360009081526007602090815260408083206001600160a01b03881684529091528120805485929062000b16908490620032cf565b909155505060405133907f8454282b08531cdbd2142ac846ae921ccea242b7bc97cc8fe966bf8d57f5efd99062000b51908790879062002f5a565b60405180910390a23360009081526007602090815260408083206001600160a01b038816845290915290205462000b9c5760405162461bcd60e51b8152600401620005949062002fb1565b6000670de0b6b3a7640000600260009054906101000a90046001600160a01b03166001600160a01b031663a035b1fe6040518163ffffffff1660e01b815260040160206040518083038186803b15801562000bf657600080fd5b505afa15801562000c0b573d6000803e3d6000fd5b505050506040513d601f19601f8201168201806040525081019062000c31919062002dd9565b3360009081526007602090815260408083206001600160a01b038b16845290915290205462000c6191906200330b565b62000c6d9190620032ea565b6001600160a01b038087166000908152600a6020908152604080832054815163501ad8ff60e11b815291519596509294670de0b6b3a764000094939093169263a035b1fe92600480840193919291829003018186803b15801562000cd057600080fd5b505afa15801562000ce5573d6000803e3d6000fd5b505050506040513d601f19601f8201168201806040525081019062000d0b919062002dd9565b8562000d18893362002987565b62000d249190620032cf565b62000d3091906200330b565b62000d3c9190620032ea565b60065490915062000d4e8284620032ea565b62000d6290670de0b6b3a76400006200330b565b101562000d835760405162461bcd60e51b8152600401620005949062002fe8565b6040516340c10f1960e01b81526001600160a01b038716906340c10f199062000db3903390889060040162002f5a565b600060405180830381600087803b15801562000dce57600080fd5b505af115801562000de3573d6000803e3d6000fd5b5050336000908152600b602090815260408083206001600160a01b038c1684529091528120805488945090925062000e1d908490620032cf565b9091555050336000818152600b602090815260408083206001600160a01b038b168452909152908190205490517f0f6798a560793a54c3bcfe86a93cde1e73087d944c0ea20544137d4121396885916200096891620032c6565b6040516340c10f1960e01b81526001600160a01b038516906340c10f199062000ea7908590859060040162002f5a565b600060405180830381600087803b15801562000ec257600080fd5b505af115801562000ed7573d6000803e3d6000fd5b505050506001600160a01b038381166000908152600b602090815260408083209388168352929052908120805483929062000f14908490620032cf565b909155505050505050565b600a602052600090815260409020546001600160a01b031681565b6005818154811062000f4b57600080fd5b6000918252602090912001546001600160a01b0316905081565b816001600160a01b03811633141562000f925760405162461bcd60e51b815260040162000594906200328f565b6001600160a01b038084166000908152600d6020908152604080832093861683529290522054421162000fc457600080fd5b6001600160a01b03808416600090815260076020908152604080832093861683529290522054158015906200101d57506001600160a01b038084166000908152600b602090815260408083209386168352929052205415155b6200103c5760405162461bcd60e51b81526004016200059490620031d3565b6000670de0b6b3a7640000600260009054906101000a90046001600160a01b03166001600160a01b031663a035b1fe6040518163ffffffff1660e01b815260040160206040518083038186803b1580156200109657600080fd5b505afa158015620010ab573d6000803e3d6000fd5b505050506040513d601f19601f82011682018060405250810190620010d1919062002dd9565b6001600160a01b038087166000908152600760209081526040808320938916835292905220546200110391906200330b565b6200110f9190620032ea565b6001600160a01b038085166000908152600a6020908152604080832054815163501ad8ff60e11b815291519596509294670de0b6b3a764000094939093169263a035b1fe92600480840193919291829003018186803b1580156200117257600080fd5b505afa15801562001187573d6000803e3d6000fd5b505050506040513d601f19601f82011682018060405250810190620011ad919062002dd9565b6001600160a01b038088166000908152600b60209081526040808320938a1683529290522054620011df91906200330b565b620011eb9190620032ea565b6001600160a01b0385166000908152600960205260409020549091506064906200121690836200330b565b620012229190620032ea565b8210620012435760405162461bcd60e51b8152600401620005949062003120565b6200125242620d2f00620032cf565b6001600160a01b038087166000908152600d60209081526040808320938916835292905220556200128e8486336729a2241af62c000062000e77565b6001600160a01b038581166000818152600d60209081526040808320948916835293905282902054915133927f7b6d8f707470c1bdd273f9d9c0f9aceb7c08121fcd692ffd05f2fd3cd0d0609891620012e89190620032c6565b60405180910390a35050505050565b600d60209081526000928352604080842090915290825290205481565b60086020526000908152604090205481565b6004546001600160a01b03163314620013535760405162461bcd60e51b81526004016200059490620030e9565b336000908152600b602090815260408083206001600160a01b038616845290915290205415620013b857336000908152600b602090815260408083206001600160a01b038616845290915281208054839290620013b29084906200332d565b90915550505b604051630852cd8d60e31b81526001600160a01b038316906342966c689062000607908490600401620032c6565b6000546001600160a01b03163314620014135760405162461bcd60e51b81526004016200059490620030c3565b828211620014355760405162461bcd60e51b815260040162000594906200314d565b6000600580549050905060008989898989604051620014549062002b2e565b6200146495949392919062002f73565b604051809103906000f08015801562001481573d6000803e3d6000fd5b506005805460018101825560008281527f036b6384b5eca791c62761152d0c79bb0604c104a5fb6f4eb0703f3154bb3db090910180546001600160a01b0319166001600160a01b038516179055815492935087926008929086908110620014f857634e487b7160e01b600052603260045260246000fd5b60009182526020808320909101546001600160a01b031683528201929092526040018120919091556005805486926009929091869081106200154a57634e487b7160e01b600052603260045260246000fd5b60009182526020808320909101546001600160a01b03168352820192909252604001812091909155600580548592600a929091869081106200159c57634e487b7160e01b600052603260045260246000fd5b6000918252602080832091909101546001600160a01b039081168452908301939093526040918201902080546001600160a01b03191693909216929092179055517fd2677dc8664b781e907b79f6cd708bec947a77e3ff59b3b68348799139eb49aa90620016169083908d908d908d908d908a9062002f09565b60405180910390a150505050505050505050565b6000816200164c5760405162461bcd60e51b8152600401620005949062003265565b6001600160a01b038084166000908152600a6020908152604080832054815163501ad8ff60e11b815291519394670de0b6b3a76400009491169263a035b1fe9260048082019391829003018186803b158015620016a857600080fd5b505afa158015620016bd573d6000803e3d6000fd5b505050506040513d601f19601f82011682018060405250810190620016e3919062002dd9565b336000908152600b602090815260408083206001600160a01b038a16845290915290205462001714908690620032cf565b6200172091906200330b565b6200172c9190620032ea565b9050670de0b6b3a7640000600654826200174791906200330b565b620017539190620032ea565b949350505050565b600c60209081526000928352604080842090915290825290205481565b60065481565b600b60209081526000928352604080842090915290825290205481565b816001600160a01b038116331415620017c85760405162461bcd60e51b815260040162000594906200328f565b6001600160a01b038084166000908152600d6020908152604080832093861683529290522054620017f857600080fd5b6001600160a01b038083166000908152600a6020908152604080832054600254825163501ad8ff60e11b8152925191861695169263a035b1fe9260048082019391829003018186803b1580156200184e57600080fd5b505afa15801562001863573d6000803e3d6000fd5b505050506040513d601f19601f8201168201806040525081019062001889919062002dd9565b6001600160a01b03808716600090815260076020908152604080832093891683529290529081205491925090670de0b6b3a764000090620018cc9084906200330b565b620018d89190620032ea565b90506000670de0b6b3a7640000846001600160a01b031663a035b1fe6040518163ffffffff1660e01b815260040160206040518083038186803b1580156200191f57600080fd5b505afa15801562001934573d6000803e3d6000fd5b505050506040513d601f19601f820116820180604052508101906200195a919062002dd9565b62001966888a62002987565b6200197291906200330b565b6200197e9190620032ea565b6001600160a01b038716600090815260086020526040902054909150606490620019a990836200330b565b620019b59190620032ea565b82108062001a2557506001600160a01b038616600090815260096020526040902054606490620019e690836200330b565b620019f29190620032ea565b8210801562001a2557506001600160a01b038088166000908152600d60209081526040808320938a168352929052205442115b62001a445760405162461bcd60e51b8152600401620005949062003012565b6001546003546001600160a01b0389811660009081526007602090815260408083208c851684529091529081902054905163095ea7b360e01b81529382169363095ea7b39362001a9a9316919060040162002f5a565b602060405180830381600087803b15801562001ab557600080fd5b505af115801562001aca573d6000803e3d6000fd5b505050506040513d601f19601f8201168201806040525081019062001af0919062002c27565b50600062001b00600a83620032ea565b905062001b108789338462000e77565b62001b1d8733836200277a565b6001600160a01b038089166000818152600b60209081526040808320948c1680845294825280832054938352600c825280832094835293905291822080549192909162001b6c908490620032cf565b90915550506001600160a01b0380891660009081526007602090815260408083208b85168452825280832054815163501ad8ff60e11b815291519094670de0b6b3a764000093908b169263a035b1fe9260048083019392829003018186803b15801562001bd857600080fd5b505afa15801562001bed573d6000803e3d6000fd5b505050506040513d601f19601f8201168201806040525081019062001c13919062002dd9565b6001600160a01b03808d166000908152600c60209081526040808320938f168352929052205462001c4591906200330b565b62001c519190620032ea565b9050600360009054906101000a90046001600160a01b03166001600160a01b03166309a7a4308b8b600160009054906101000a90046001600160a01b031633878b888e6040518963ffffffff1660e01b815260040162001cb998979695949392919062002e9b565b600060405180830381600087803b15801562001cd457600080fd5b505af115801562001ce9573d6000803e3d6000fd5b5050505062001cf98a8a62002ad0565b336001600160a01b03168a6001600160a01b03167f67de72df4555d6100790695c44d6b25b62d1787a37c458d832b980b8442430b58b60405162001d3e919062002e87565b60405180910390a350505050505050505050565b6000546001600160a01b031681565b60096020526000908152604090205481565b6040516323b872dd60e01b81526001600160a01b038316906323b872dd9062001da59033903090869060040162002ee5565b602060405180830381600087803b15801562001dc057600080fd5b505af115801562001dd5573d6000803e3d6000fd5b505050506040513d601f19601f8201168201806040525081019062001dfb919062002c27565b62001e1a5760405162461bcd60e51b815260040162000594906200317b565b604051630852cd8d60e31b81526001600160a01b038316906342966c689062001e48908490600401620032c6565b600060405180830381600087803b15801562001e6357600080fd5b505af115801562001e78573d6000803e3d6000fd5b5050336000908152600b602090815260408083206001600160a01b03881684529091528120805485945090925062001eb29084906200332d565b909155505060405133907fbac40739b0d4ca32fa2d82fc91630465ba3eddd1598da6fca393b26fb63b94539062001eed908590859062002f5a565b60405180910390a25050565b505050565b6000546001600160a01b0316331462001f2b5760405162461bcd60e51b81526004016200059490620030c3565b81811162001f4d5760405162461bcd60e51b815260040162000594906200323d565b6001600160a01b03909216600090815260086020908152604080832093909355600990522055565b600b81565b3360009081526007602090815260408083206001600160a01b0385168452909152812054158062001fcc5750336000908152600b602090815260408083206001600160a01b0386168452909152902054155b1562001fdb5750600062000562565b6000670de0b6b3a7640000600260009054906101000a90046001600160a01b03166001600160a01b031663a035b1fe6040518163ffffffff1660e01b815260040160206040518083038186803b1580156200203557600080fd5b505afa1580156200204a573d6000803e3d6000fd5b505050506040513d601f19601f8201168201806040525081019062002070919062002dd9565b3360009081526007602090815260408083206001600160a01b0389168452909152902054620020a091906200330b565b620020ac9190620032ea565b6001600160a01b038085166000908152600a6020908152604080832054815163501ad8ff60e11b815291519596509294670de0b6b3a764000094939093169263a035b1fe92600480840193919291829003018186803b1580156200210f57600080fd5b505afa15801562002124573d6000803e3d6000fd5b505050506040513d601f19601f820116820180604052508101906200214a919062002dd9565b336000908152600b602090815260408083206001600160a01b038a1684529091529020546200217a91906200330b565b620021869190620032ea565b90506200175381620021a184670de0b6b3a764000062002b12565b9062002b20565b6000546001600160a01b03163314620021d55760405162461bcd60e51b81526004016200059490620030c3565b600480546001600160a01b0319166001600160a01b0392909216919091179055565b6001546001600160a01b031681565b6729a2241af62c000081565b3360009081526007602090815260408083206001600160a01b0386168452909152902054811115620022585760405162461bcd60e51b81526004016200059490620031a4565b6000670de0b6b3a7640000600260009054906101000a90046001600160a01b03166001600160a01b031663a035b1fe6040518163ffffffff1660e01b815260040160206040518083038186803b158015620022b257600080fd5b505afa158015620022c7573d6000803e3d6000fd5b505050506040513d601f19601f82011682018060405250810190620022ed919062002dd9565b3360009081526007602090815260408083206001600160a01b03891684529091529020546200231e9085906200332d565b6200232a91906200330b565b620023369190620032ea565b6001600160a01b038085166000908152600a6020908152604080832054815163501ad8ff60e11b815291519596509294670de0b6b3a764000094939093169263a035b1fe92600480840193919291829003018186803b1580156200239957600080fd5b505afa158015620023ae573d6000803e3d6000fd5b505050506040513d601f19601f82011682018060405250810190620023d4919062002dd9565b620023e0863362002987565b620023ec91906200330b565b620023f89190620032ea565b6001600160a01b0385166000908152600860205260409020549091506064906200242390836200330b565b6200242f9190620032ea565b821015620024515760405162461bcd60e51b8152600401620005949062003217565b3360009081526007602090815260408083206001600160a01b038816845290915281208054859290620024869084906200332d565b909155505060015460405163a9059cbb60e01b81526001600160a01b039091169063a9059cbb90620024bf903390879060040162002f5a565b602060405180830381600087803b158015620024da57600080fd5b505af1158015620024ef573d6000803e3d6000fd5b505050506040513d601f19601f8201168201806040525081019062002515919062002c27565b50336001600160a01b03167f39232a7eed2ad0ea7afab6b1edffa01bbd4a635bf106ac38ec5261d8d691f4a085856040516200255392919062002f5a565b60405180910390a250505050565b6000821515806200257157508115155b620025905760405162461bcd60e51b8152600401620005949062003265565b6000670de0b6b3a7640000600260009054906101000a90046001600160a01b03166001600160a01b031663a035b1fe6040518163ffffffff1660e01b815260040160206040518083038186803b158015620025ea57600080fd5b505afa158015620025ff573d6000803e3d6000fd5b505050506040513d601f19601f8201168201806040525081019062002625919062002dd9565b3360009081526007602090815260408083206001600160a01b038b16845290915290205462002656908790620032cf565b6200266291906200330b565b6200266e9190620032ea565b6001600160a01b038087166000908152600a6020908152604080832054815163501ad8ff60e11b815291519596509294670de0b6b3a764000094939093169263a035b1fe92600480840193919291829003018186803b158015620026d157600080fd5b505afa158015620026e6573d6000803e3d6000fd5b505050506040513d601f19601f820116820180604052508101906200270c919062002dd9565b336000908152600b602090815260408083206001600160a01b038c1684529091529020546200273d908790620032cf565b6200274991906200330b565b620027559190620032ea565b90506200277081620021a184670de0b6b3a764000062002b12565b9695505050505050565b600062002789606483620032ea565b6200279690603c6200330b565b60405163a9059cbb60e01b81529091506001600160a01b0385169063a9059cbb90620027c9908690859060040162002f5a565b602060405180830381600087803b158015620027e457600080fd5b505af1158015620027f9573d6000803e3d6000fd5b505050506040513d601f19601f820116820180604052508101906200281f919062002c27565b6200283e5760405162461bcd60e51b8152600401620005949062003065565b50505050565b600760209081526000928352604080842090915290825290205481565b600081620028835760405162461bcd60e51b8152600401620005949062003265565b6000670de0b6b3a7640000600260009054906101000a90046001600160a01b03166001600160a01b031663a035b1fe6040518163ffffffff1660e01b815260040160206040518083038186803b158015620028dd57600080fd5b505afa158015620028f2573d6000803e3d6000fd5b505050506040513d601f19601f8201168201806040525081019062002918919062002dd9565b3360009081526007602090815260408083206001600160a01b038a16845290915290205462002949908690620032cf565b6200295591906200330b565b620029619190620032ea565b905060065481620029739190620032ea565b6200175390670de0b6b3a76400006200330b565b600480546001600160a01b039081166000908152600b602090815260408083209387168084529382528083205481516318160ddd60e01b8152915193958695919491936318160ddd9380830193919290829003018186803b158015620029ec57600080fd5b505afa15801562002a01573d6000803e3d6000fd5b505050506040513d601f19601f8201168201806040525081019062002a27919062002dd9565b62002a3391906200332d565b6004546001600160a01b039081166000908152600b602090815260408083209389168352929052205462002a689190620032ea565b6001600160a01b038085166000908152600b602090815260408083209389168352929052205490915062002a9e9082906200330b565b6001600160a01b038085166000908152600b6020908152604080832093891683529290522054620017539190620032cf565b6001600160a01b03918216600081815260076020908152604080832094909516808352938152848220829055918152600b825283812092815291905290812055565b6000620006c482846200330b565b6000620006c48284620032ea565b61135c806200337783390190565b60008083601f84011262002b4e578182fd5b50813567ffffffffffffffff81111562002b66578182fd5b60208301915083602082850101111562002b7f57600080fd5b9250929050565b60006020828403121562002b98578081fd5b8135620006c4816200335d565b6000806040838503121562002bb8578081fd5b823562002bc5816200335d565b9150602083013562002bd7816200335d565b809150509250929050565b60008060006060848603121562002bf7578081fd5b833562002c04816200335d565b9250602084013562002c16816200335d565b929592945050506040919091013590565b60006020828403121562002c39578081fd5b81518015158114620006c4578182fd5b6000806000806080858703121562002c5f578081fd5b843562002c6c816200335d565b9350602085013562002c7e816200335d565b9250604085013562002c90816200335d565b9396929550929360600135925050565b60008060006060848603121562002bf7578283fd5b6000806040838503121562002cc8578182fd5b823562002cd5816200335d565b946020939093013593505050565b60008060006060848603121562002cf8578283fd5b833562002d05816200335d565b95602085013595506040909401359392505050565b60008060008060008060008060c0898b03121562002d36578384fd5b883567ffffffffffffffff8082111562002d4e578586fd5b62002d5c8c838d0162002b3c565b909a50985060208b013591508082111562002d75578586fd5b5062002d848b828c0162002b3c565b90975095505060408901359350606089013592506080890135915060a089013562002daf816200335d565b809150509295985092959890939650565b60006020828403121562002dd2578081fd5b5035919050565b60006020828403121562002deb578081fd5b5051919050565b60008060008060008060c0878903121562002e0b578182fd5b86359550602087013562002e1f816200335d565b9450604087013562002e31816200335d565b9350606087013562002e43816200335d565b9598949750929560808101359460a0909101359350915050565b60008284528282602086013780602084860101526020601f19601f85011685010190509392505050565b6001600160a01b0391909116815260200190565b6001600160a01b03988916815296881660208801529487166040870152929095166060850152608084015260a083019390935260c082019290925260e08101919091526101000190565b6001600160a01b039384168152919092166020820152604081019190915260600190565b600060018060a01b0380891683526080602084015262002f2e60808401888a62002e5d565b838103604085015262002f4381878962002e5d565b925050808416606084015250979650505050505050565b6001600160a01b03929092168252602082015260400190565b60006060825262002f8960608301878962002e5d565b828103602084015262002f9e81868862002e5d565b9150508260408301529695505050505050565b6020808252601a908201527f576974686f757420636f6c6c61746572616c206465706f736974000000000000604082015260600190565b60208082526010908201526f10589bdd99481b585e08185b5bdd5b9d60821b604082015260600190565b6020808252600c908201526b61626f76652063526174696f60a01b604082015260600190565b6020808252601390820152724f6e6c792061756374696f6e20686f7573652160681b604082015260600190565b60208082526019908201527f6661696c6564207472616e7366657220696e63656e7469766500000000000000604082015260600190565b6020808252600d908201526c34b73b30b634b2103a37b5b2b760991b604082015260600190565b6020808252600c908201526b1d5b985d5d1a1bdc9a5e995960a21b604082015260600190565b60208082526018908201527f4f6e6c79207065726d697474656420636f6e7472616374210000000000000000604082015260600190565b60208082526013908201527241626f76652063526174696f5061737369766f60681b604082015260600190565b602080825260149082015273496e76616c69642063526174696f41637469766560601b604082015260600190565b6020808252600f908201526e1d1c985b9cd9995c8819985a5b1959608a1b604082015260600190565b602080825260159082015274496e73756666696369656e74207175616e7469747960581b604082015260600190565b60208082526024908201527f557365722063616e6e6f7420626520666c616767656420666f72206c697175696040820152636461746560e01b606082015260800190565b6020808252600c908201526b62656c6f772063526174696f60a01b604082015260600190565b6020808252600e908201526d696e76616c69642063526174696f60901b604082015260600190565b60208082526010908201526f496e636f72726563742076616c75657360801b604082015260600190565b6020808252601f908201527f53656e6465722063616e6e6f7420626520746865206c69717569646174656400604082015260600190565b90815260200190565b60008219821115620032e557620032e562003347565b500190565b6000826200330657634e487b7160e01b81526012600452602481fd5b500490565b600081600019048311821515161562003328576200332862003347565b500290565b60008282101562003342576200334262003347565b500390565b634e487b7160e01b600052601160045260246000fd5b6001600160a01b03811681146200337357600080fd5b5056fe60806040523480156200001157600080fd5b506040516200135c3803806200135c833981016040819052620000349162000330565b8251839083906200004d906003906020850190620001df565b50805162000063906004906020840190620001df565b505050620000806200007a620000a260201b60201c565b620000a6565b6005805460ff60a01b19169055620000993382620000f8565b50505062000458565b3390565b600580546001600160a01b038381166001600160a01b0319831681179093556040519116919082907f8be0079c531659141344cd1fd0a4f28419497f9722a3daafe3b4186f6b6457e090600090a35050565b6001600160a01b0382166200012a5760405162461bcd60e51b81526004016200012190620003a0565b60405180910390fd5b6200013860008383620001da565b80600260008282546200014c9190620003e0565b90915550506001600160a01b038216600090815260208190526040812080548392906200017b908490620003e0565b90915550506040516001600160a01b038316906000907fddf252ad1be2c89b69c2b068fc378daa952ba7f163c4a11628f55a4df523b3ef90620001c0908590620003d7565b60405180910390a3620001d660008383620001da565b5050565b505050565b828054620001ed9062000405565b90600052602060002090601f0160209004810192826200021157600085556200025c565b82601f106200022c57805160ff19168380011785556200025c565b828001600101855582156200025c579182015b828111156200025c5782518255916020019190600101906200023f565b506200026a9291506200026e565b5090565b5b808211156200026a57600081556001016200026f565b600082601f83011262000296578081fd5b81516001600160401b0380821115620002b357620002b362000442565b6040516020601f8401601f1916820181018381118382101715620002db57620002db62000442565b6040528382528584018101871015620002f2578485fd5b8492505b83831015620003155785830181015182840182015291820191620002f6565b838311156200032657848185840101525b5095945050505050565b60008060006060848603121562000345578283fd5b83516001600160401b03808211156200035c578485fd5b6200036a8783880162000285565b9450602086015191508082111562000380578384fd5b506200038f8682870162000285565b925050604084015190509250925092565b6020808252601f908201527f45524332303a206d696e7420746f20746865207a65726f206164647265737300604082015260600190565b90815260200190565b600082198211156200040057634e487b7160e01b81526011600452602481fd5b500190565b6002810460018216806200041a57607f821691505b602082108114156200043c57634e487b7160e01b600052602260045260246000fd5b50919050565b634e487b7160e01b600052604160045260246000fd5b610ef480620004686000396000f3fe608060405234801561001057600080fd5b506004361061010b5760003560e01c80635c975abb116100a257806395d89b411161007157806395d89b41146101fe578063a457c2d714610206578063a9059cbb14610219578063dd62ed3e1461022c578063f2fde38b1461023f5761010b565b80635c975abb146101c657806370a08231146101ce578063715018a6146101e15780638da5cb5b146101e95761010b565b8063313ce567116100de578063313ce56714610176578063395093511461018b57806340c10f191461019e57806342966c68146101b35761010b565b806306fdde0314610110578063095ea7b31461012e57806318160ddd1461014e57806323b872dd14610163575b600080fd5b610118610252565b6040516101259190610acf565b60405180910390f35b61014161013c366004610a6f565b6102e4565b6040516101259190610ac4565b610156610306565b6040516101259190610e27565b610141610171366004610a34565b61030c565b61017e61033a565b6040516101259190610e30565b610141610199366004610a6f565b61033f565b6101b16101ac366004610a6f565b61038b565b005b6101b16101c1366004610a98565b6103e1565b6101416103ee565b6101566101dc3660046109e1565b6103fe565b6101b161041d565b6101f1610468565b6040516101259190610ab0565b610118610477565b610141610214366004610a6f565b610486565b610141610227366004610a6f565b6104e7565b61015661023a366004610a02565b6104ff565b6101b161024d3660046109e1565b61052a565b60606003805461026190610e6d565b80601f016020809104026020016040519081016040528092919081815260200182805461028d90610e6d565b80156102da5780601f106102af576101008083540402835291602001916102da565b820191906000526020600020905b8154815290600101906020018083116102bd57829003601f168201915b5050505050905090565b6000806102ef610598565b90506102fc81858561059c565b5060019392505050565b60025490565b600080610317610598565b9050610324858285610650565b61032f85858561069a565b506001949350505050565b601290565b60008061034a610598565b6001600160a01b038082166000908152600160209081526040808320938916835292905220549091506102fc9082908690610386908790610e3e565b61059c565b610393610598565b6001600160a01b03166103a4610468565b6001600160a01b0316146103d35760405162461bcd60e51b81526004016103ca90610cac565b60405180910390fd5b6103dd82826107be565b5050565b6103eb3382610886565b50565b600554600160a01b900460ff1690565b6001600160a01b0381166000908152602081905260409020545b919050565b610425610598565b6001600160a01b0316610436610468565b6001600160a01b03161461045c5760405162461bcd60e51b81526004016103ca90610cac565b6104666000610978565b565b6005546001600160a01b031690565b60606004805461026190610e6d565b600080610491610598565b6001600160a01b03808216600090815260016020908152604080832093891683529290522054909150838110156104da5760405162461bcd60e51b81526004016103ca90610dab565b61032f828686840361059c565b6000806104f2610598565b90506102fc81858561069a565b6001600160a01b03918216600090815260016020908152604080832093909416825291909152205490565b610532610598565b6001600160a01b0316610543610468565b6001600160a01b0316146105695760405162461bcd60e51b81526004016103ca90610cac565b6001600160a01b03811661058f5760405162461bcd60e51b81526004016103ca90610ba7565b6103eb81610978565b3390565b6001600160a01b0383166105c25760405162461bcd60e51b81526004016103ca90610d67565b6001600160a01b0382166105e85760405162461bcd60e51b81526004016103ca90610bed565b6001600160a01b0380841660008181526001602090815260408083209487168084529490915290819020849055517f8c5be1e5ebec7d5bd14f71427d1e84f3dd0314c0f7b2291e5b200ac8c7c3b92590610643908590610e27565b60405180910390a3505050565b600061065c84846104ff565b9050600019811461069457818110156106875760405162461bcd60e51b81526004016103ca90610c2f565b610694848484840361059c565b50505050565b6001600160a01b0383166106c05760405162461bcd60e51b81526004016103ca90610d22565b6001600160a01b0382166106e65760405162461bcd60e51b81526004016103ca90610b22565b6106f1838383610973565b6001600160a01b0383166000908152602081905260409020548181101561072a5760405162461bcd60e51b81526004016103ca90610c66565b6001600160a01b03808516600090815260208190526040808220858503905591851681529081208054849290610761908490610e3e565b92505081905550826001600160a01b0316846001600160a01b03167fddf252ad1be2c89b69c2b068fc378daa952ba7f163c4a11628f55a4df523b3ef846040516107ab9190610e27565b60405180910390a3610694848484610973565b6001600160a01b0382166107e45760405162461bcd60e51b81526004016103ca90610df0565b6107f060008383610973565b80600260008282546108029190610e3e565b90915550506001600160a01b0382166000908152602081905260408120805483929061082f908490610e3e565b90915550506040516001600160a01b038316906000907fddf252ad1be2c89b69c2b068fc378daa952ba7f163c4a11628f55a4df523b3ef90610872908590610e27565b60405180910390a36103dd60008383610973565b6001600160a01b0382166108ac5760405162461bcd60e51b81526004016103ca90610ce1565b6108b882600083610973565b6001600160a01b038216600090815260208190526040902054818110156108f15760405162461bcd60e51b81526004016103ca90610b65565b6001600160a01b0383166000908152602081905260408120838303905560028054849290610920908490610e56565b90915550506040516000906001600160a01b038516907fddf252ad1be2c89b69c2b068fc378daa952ba7f163c4a11628f55a4df523b3ef90610963908690610e27565b60405180910390a3610973836000845b505050565b600580546001600160a01b038381166001600160a01b0319831681179093556040519116919082907f8be0079c531659141344cd1fd0a4f28419497f9722a3daafe3b4186f6b6457e090600090a35050565b80356001600160a01b038116811461041857600080fd5b6000602082840312156109f2578081fd5b6109fb826109ca565b9392505050565b60008060408385031215610a14578081fd5b610a1d836109ca565b9150610a2b602084016109ca565b90509250929050565b600080600060608486031215610a48578081fd5b610a51846109ca565b9250610a5f602085016109ca565b9150604084013590509250925092565b60008060408385031215610a81578182fd5b610a8a836109ca565b946020939093013593505050565b600060208284031215610aa9578081fd5b5035919050565b6001600160a01b0391909116815260200190565b901515815260200190565b6000602080835283518082850152825b81811015610afb57858101830151858201604001528201610adf565b81811115610b0c5783604083870101525b50601f01601f1916929092016040019392505050565b60208082526023908201527f45524332303a207472616e7366657220746f20746865207a65726f206164647260408201526265737360e81b606082015260800190565b60208082526022908201527f45524332303a206275726e20616d6f756e7420657863656564732062616c616e604082015261636560f01b606082015260800190565b60208082526026908201527f4f776e61626c653a206e6577206f776e657220697320746865207a65726f206160408201526564647265737360d01b606082015260800190565b60208082526022908201527f45524332303a20617070726f766520746f20746865207a65726f206164647265604082015261737360f01b606082015260800190565b6020808252601d908201527f45524332303a20696e73756666696369656e7420616c6c6f77616e6365000000604082015260600190565b60208082526026908201527f45524332303a207472616e7366657220616d6f756e7420657863656564732062604082015265616c616e636560d01b606082015260800190565b6020808252818101527f4f776e61626c653a2063616c6c6572206973206e6f7420746865206f776e6572604082015260600190565b60208082526021908201527f45524332303a206275726e2066726f6d20746865207a65726f206164647265736040820152607360f81b606082015260800190565b60208082526025908201527f45524332303a207472616e736665722066726f6d20746865207a65726f206164604082015264647265737360d81b606082015260800190565b60208082526024908201527f45524332303a20617070726f76652066726f6d20746865207a65726f206164646040820152637265737360e01b606082015260800190565b60208082526025908201527f45524332303a2064656372656173656420616c6c6f77616e63652062656c6f77604082015264207a65726f60d81b606082015260800190565b6020808252601f908201527f45524332303a206d696e7420746f20746865207a65726f206164647265737300604082015260600190565b90815260200190565b60ff91909116815260200190565b60008219821115610e5157610e51610ea8565b500190565b600082821015610e6857610e68610ea8565b500390565b600281046001821680610e8157607f821691505b60208210811415610ea257634e487b7160e01b600052602260045260246000fd5b50919050565b634e487b7160e01b600052601160045260246000fdfea2646970667358221220f1ff6ffff741b6ff9e83efe91f8865dd10ee6ceadf41819c7f9586d17f08c39b64736f6c63430008000033a2646970667358221220b509cec593667ba321750e222456a933507a88eee345f759f87b2ddc85ef246664736f6c63430008000033",
  "linkReferences": {},
  "deployedLinkReferences": {}
}