{
  "_format": "hh-sol-artifact-1",
  "contractName": "GTokenERC20",
  "sourceName": "contracts/GTokenERC20.sol",
  "abi": [
    {
      "inputs": [
        {
          "internalType": "string",
          "name": "name_",
          "type": "string"
        },
        {
          "internalType": "string",
          "name": "symbol_",
          "type": "string"
        },
        {
          "internalType": "uint256",
          "name": "initialSupply",
          "type": "uint256"
        }
      ],
      "stateMutability": "nonpayable",
      "type": "constructor"
    },
    {
      "anonymous": false,
      "inputs": [
        {
          "indexed": true,
          "internalType": "address",
          "name": "owner",
          "type": "address"
        },
        {
          "indexed": true,
          "internalType": "address",
          "name": "spender",
          "type": "address"
        },
        {
          "indexed": false,
          "internalType": "uint256",
          "name": "value",
          "type": "uint256"
        }
      ],
      "name": "Approval",
      "type": "event"
    },
    {
      "anonymous": false,
      "inputs": [
        {
          "indexed": true,
          "internalType": "address",
          "name": "previousOwner",
          "type": "address"
        },
        {
          "indexed": true,
          "internalType": "address",
          "name": "newOwner",
          "type": "address"
        }
      ],
      "name": "OwnershipTransferred",
      "type": "event"
    },
    {
      "anonymous": false,
      "inputs": [
        {
          "indexed": false,
          "internalType": "address",
          "name": "account",
          "type": "address"
        }
      ],
      "name": "Paused",
      "type": "event"
    },
    {
      "anonymous": false,
      "inputs": [
        {
          "indexed": true,
          "internalType": "address",
          "name": "from",
          "type": "address"
        },
        {
          "indexed": true,
          "internalType": "address",
          "name": "to",
          "type": "address"
        },
        {
          "indexed": false,
          "internalType": "uint256",
          "name": "value",
          "type": "uint256"
        }
      ],
      "name": "Transfer",
      "type": "event"
    },
    {
      "anonymous": false,
      "inputs": [
        {
          "indexed": false,
          "internalType": "address",
          "name": "account",
          "type": "address"
        }
      ],
      "name": "Unpaused",
      "type": "event"
    },
    {
      "inputs": [
        {
          "internalType": "address",
          "name": "owner",
          "type": "address"
        },
        {
          "internalType": "address",
          "name": "spender",
          "type": "address"
        }
      ],
      "name": "allowance",
      "outputs": [
        {
          "internalType": "uint256",
          "name": "",
          "type": "uint256"
        }
      ],
      "stateMutability": "view",
      "type": "function"
    },
    {
      "inputs": [
        {
          "internalType": "address",
          "name": "spender",
          "type": "address"
        },
        {
          "internalType": "uint256",
          "name": "amount",
          "type": "uint256"
        }
      ],
      "name": "approve",
      "outputs": [
        {
          "internalType": "bool",
          "name": "",
          "type": "bool"
        }
      ],
      "stateMutability": "nonpayable",
      "type": "function"
    },
    {
      "inputs": [
        {
          "internalType": "address",
          "name": "account",
          "type": "address"
        }
      ],
      "name": "balanceOf",
      "outputs": [
        {
          "internalType": "uint256",
          "name": "",
          "type": "uint256"
        }
      ],
      "stateMutability": "view",
      "type": "function"
    },
    {
      "inputs": [
        {
          "internalType": "uint256",
          "name": "amount",
          "type": "uint256"
        }
      ],
      "name": "burn",
      "outputs": [],
      "stateMutability": "nonpayable",
      "type": "function"
    },
    {
      "inputs": [],
      "name": "decimals",
      "outputs": [
        {
          "internalType": "uint8",
          "name": "",
          "type": "uint8"
        }
      ],
      "stateMutability": "view",
      "type": "function"
    },
    {
      "inputs": [
        {
          "internalType": "address",
          "name": "spender",
          "type": "address"
        },
        {
          "internalType": "uint256",
          "name": "subtractedValue",
          "type": "uint256"
        }
      ],
      "name": "decreaseAllowance",
      "outputs": [
        {
          "internalType": "bool",
          "name": "",
          "type": "bool"
        }
      ],
      "stateMutability": "nonpayable",
      "type": "function"
    },
    {
      "inputs": [
        {
          "internalType": "address",
          "name": "spender",
          "type": "address"
        },
        {
          "internalType": "uint256",
          "name": "addedValue",
          "type": "uint256"
        }
      ],
      "name": "increaseAllowance",
      "outputs": [
        {
          "internalType": "bool",
          "name": "",
          "type": "bool"
        }
      ],
      "stateMutability": "nonpayable",
      "type": "function"
    },
    {
      "inputs": [
        {
          "internalType": "address",
          "name": "receiver",
          "type": "address"
        },
        {
          "internalType": "uint256",
          "name": "amount",
          "type": "uint256"
        }
      ],
      "name": "mint",
      "outputs": [],
      "stateMutability": "nonpayable",
      "type": "function"
    },
    {
      "inputs": [],
      "name": "name",
      "outputs": [
        {
          "internalType": "string",
          "name": "",
          "type": "string"
        }
      ],
      "stateMutability": "view",
      "type": "function"
    },
    {
      "inputs": [],
      "name": "owner",
      "outputs": [
        {
          "internalType": "address",
          "name": "",
          "type": "address"
        }
      ],
      "stateMutability": "view",
      "type": "function"
    },
    {
      "inputs": [],
      "name": "paused",
      "outputs": [
        {
          "internalType": "bool",
          "name": "",
          "type": "bool"
        }
      ],
      "stateMutability": "view",
      "type": "function"
    },
    {
      "inputs": [],
      "name": "renounceOwnership",
      "outputs": [],
      "stateMutability": "nonpayable",
      "type": "function"
    },
    {
      "inputs": [],
      "name": "symbol",
      "outputs": [
        {
          "internalType": "string",
          "name": "",
          "type": "string"
        }
      ],
      "stateMutability": "view",
      "type": "function"
    },
    {
      "inputs": [],
      "name": "totalSupply",
      "outputs": [
        {
          "internalType": "uint256",
          "name": "",
          "type": "uint256"
        }
      ],
      "stateMutability": "view",
      "type": "function"
    },
    {
      "inputs": [
        {
          "internalType": "address",
          "name": "to",
          "type": "address"
        },
        {
          "internalType": "uint256",
          "name": "amount",
          "type": "uint256"
        }
      ],
      "name": "transfer",
      "outputs": [
        {
          "internalType": "bool",
          "name": "",
          "type": "bool"
        }
      ],
      "stateMutability": "nonpayable",
      "type": "function"
    },
    {
      "inputs": [
        {
          "internalType": "address",
          "name": "from",
          "type": "address"
        },
        {
          "internalType": "address",
          "name": "to",
          "type": "address"
        },
        {
          "internalType": "uint256",
          "name": "amount",
          "type": "uint256"
        }
      ],
      "name": "transferFrom",
      "outputs": [
        {
          "internalType": "bool",
          "name": "",
          "type": "bool"
        }
      ],
      "stateMutability": "nonpayable",
      "type": "function"
    },
    {
      "inputs": [
        {
          "internalType": "address",
          "name": "newOwner",
          "type": "address"
        }
      ],
      "name": "transferOwnership",
      "outputs": [],
      "stateMutability": "nonpayable",
      "type": "function"
    }
  ],
  "bytecode": "0x60806040523480156200001157600080fd5b506040516200135c3803806200135c833981016040819052620000349162000330565b8251839083906200004d906003906020850190620001df565b50805162000063906004906020840190620001df565b505050620000806200007a620000a260201b60201c565b620000a6565b6005805460ff60a01b19169055620000993382620000f8565b50505062000458565b3390565b600580546001600160a01b038381166001600160a01b0319831681179093556040519116919082907f8be0079c531659141344cd1fd0a4f28419497f9722a3daafe3b4186f6b6457e090600090a35050565b6001600160a01b0382166200012a5760405162461bcd60e51b81526004016200012190620003a0565b60405180910390fd5b6200013860008383620001da565b80600260008282546200014c9190620003e0565b90915550506001600160a01b038216600090815260208190526040812080548392906200017b908490620003e0565b90915550506040516001600160a01b038316906000907fddf252ad1be2c89b69c2b068fc378daa952ba7f163c4a11628f55a4df523b3ef90620001c0908590620003d7565b60405180910390a3620001d660008383620001da565b5050565b505050565b828054620001ed9062000405565b90600052602060002090601f0160209004810192826200021157600085556200025c565b82601f106200022c57805160ff19168380011785556200025c565b828001600101855582156200025c579182015b828111156200025c5782518255916020019190600101906200023f565b506200026a9291506200026e565b5090565b5b808211156200026a57600081556001016200026f565b600082601f83011262000296578081fd5b81516001600160401b0380821115620002b357620002b362000442565b6040516020601f8401601f1916820181018381118382101715620002db57620002db62000442565b6040528382528584018101871015620002f2578485fd5b8492505b83831015620003155785830181015182840182015291820191620002f6565b838311156200032657848185840101525b5095945050505050565b60008060006060848603121562000345578283fd5b83516001600160401b03808211156200035c578485fd5b6200036a8783880162000285565b9450602086015191508082111562000380578384fd5b506200038f8682870162000285565b925050604084015190509250925092565b6020808252601f908201527f45524332303a206d696e7420746f20746865207a65726f206164647265737300604082015260600190565b90815260200190565b600082198211156200040057634e487b7160e01b81526011600452602481fd5b500190565b6002810460018216806200041a57607f821691505b602082108114156200043c57634e487b7160e01b600052602260045260246000fd5b50919050565b634e487b7160e01b600052604160045260246000fd5b610ef480620004686000396000f3fe608060405234801561001057600080fd5b506004361061010b5760003560e01c80635c975abb116100a257806395d89b411161007157806395d89b41146101fe578063a457c2d714610206578063a9059cbb14610219578063dd62ed3e1461022c578063f2fde38b1461023f5761010b565b80635c975abb146101c657806370a08231146101ce578063715018a6146101e15780638da5cb5b146101e95761010b565b8063313ce567116100de578063313ce56714610176578063395093511461018b57806340c10f191461019e57806342966c68146101b35761010b565b806306fdde0314610110578063095ea7b31461012e57806318160ddd1461014e57806323b872dd14610163575b600080fd5b610118610252565b6040516101259190610acf565b60405180910390f35b61014161013c366004610a6f565b6102e4565b6040516101259190610ac4565b610156610306565b6040516101259190610e27565b610141610171366004610a34565b61030c565b61017e61033a565b6040516101259190610e30565b610141610199366004610a6f565b61033f565b6101b16101ac366004610a6f565b61038b565b005b6101b16101c1366004610a98565b6103e1565b6101416103ee565b6101566101dc3660046109e1565b6103fe565b6101b161041d565b6101f1610468565b6040516101259190610ab0565b610118610477565b610141610214366004610a6f565b610486565b610141610227366004610a6f565b6104e7565b61015661023a366004610a02565b6104ff565b6101b161024d3660046109e1565b61052a565b60606003805461026190610e6d565b80601f016020809104026020016040519081016040528092919081815260200182805461028d90610e6d565b80156102da5780601f106102af576101008083540402835291602001916102da565b820191906000526020600020905b8154815290600101906020018083116102bd57829003601f168201915b5050505050905090565b6000806102ef610598565b90506102fc81858561059c565b5060019392505050565b60025490565b600080610317610598565b9050610324858285610650565b61032f85858561069a565b506001949350505050565b601290565b60008061034a610598565b6001600160a01b038082166000908152600160209081526040808320938916835292905220549091506102fc9082908690610386908790610e3e565b61059c565b610393610598565b6001600160a01b03166103a4610468565b6001600160a01b0316146103d35760405162461bcd60e51b81526004016103ca90610cac565b60405180910390fd5b6103dd82826107be565b5050565b6103eb3382610886565b50565b600554600160a01b900460ff1690565b6001600160a01b0381166000908152602081905260409020545b919050565b610425610598565b6001600160a01b0316610436610468565b6001600160a01b03161461045c5760405162461bcd60e51b81526004016103ca90610cac565b6104666000610978565b565b6005546001600160a01b031690565b60606004805461026190610e6d565b600080610491610598565b6001600160a01b03808216600090815260016020908152604080832093891683529290522054909150838110156104da5760405162461bcd60e51b81526004016103ca90610dab565b61032f828686840361059c565b6000806104f2610598565b90506102fc81858561069a565b6001600160a01b03918216600090815260016020908152604080832093909416825291909152205490565b610532610598565b6001600160a01b0316610543610468565b6001600160a01b0316146105695760405162461bcd60e51b81526004016103ca90610cac565b6001600160a01b03811661058f5760405162461bcd60e51b81526004016103ca90610ba7565b6103eb81610978565b3390565b6001600160a01b0383166105c25760405162461bcd60e51b81526004016103ca90610d67565b6001600160a01b0382166105e85760405162461bcd60e51b81526004016103ca90610bed565b6001600160a01b0380841660008181526001602090815260408083209487168084529490915290819020849055517f8c5be1e5ebec7d5bd14f71427d1e84f3dd0314c0f7b2291e5b200ac8c7c3b92590610643908590610e27565b60405180910390a3505050565b600061065c84846104ff565b9050600019811461069457818110156106875760405162461bcd60e51b81526004016103ca90610c2f565b610694848484840361059c565b50505050565b6001600160a01b0383166106c05760405162461bcd60e51b81526004016103ca90610d22565b6001600160a01b0382166106e65760405162461bcd60e51b81526004016103ca90610b22565b6106f1838383610973565b6001600160a01b0383166000908152602081905260409020548181101561072a5760405162461bcd60e51b81526004016103ca90610c66565b6001600160a01b03808516600090815260208190526040808220858503905591851681529081208054849290610761908490610e3e565b92505081905550826001600160a01b0316846001600160a01b03167fddf252ad1be2c89b69c2b068fc378daa952ba7f163c4a11628f55a4df523b3ef846040516107ab9190610e27565b60405180910390a3610694848484610973565b6001600160a01b0382166107e45760405162461bcd60e51b81526004016103ca90610df0565b6107f060008383610973565b80600260008282546108029190610e3e565b90915550506001600160a01b0382166000908152602081905260408120805483929061082f908490610e3e565b90915550506040516001600160a01b038316906000907fddf252ad1be2c89b69c2b068fc378daa952ba7f163c4a11628f55a4df523b3ef90610872908590610e27565b60405180910390a36103dd60008383610973565b6001600160a01b0382166108ac5760405162461bcd60e51b81526004016103ca90610ce1565b6108b882600083610973565b6001600160a01b038216600090815260208190526040902054818110156108f15760405162461bcd60e51b81526004016103ca90610b65565b6001600160a01b0383166000908152602081905260408120838303905560028054849290610920908490610e56565b90915550506040516000906001600160a01b038516907fddf252ad1be2c89b69c2b068fc378daa952ba7f163c4a11628f55a4df523b3ef90610963908690610e27565b60405180910390a3610973836000845b505050565b600580546001600160a01b038381166001600160a01b0319831681179093556040519116919082907f8be0079c531659141344cd1fd0a4f28419497f9722a3daafe3b4186f6b6457e090600090a35050565b80356001600160a01b038116811461041857600080fd5b6000602082840312156109f2578081fd5b6109fb826109ca565b9392505050565b60008060408385031215610a14578081fd5b610a1d836109ca565b9150610a2b602084016109ca565b90509250929050565b600080600060608486031215610a48578081fd5b610a51846109ca565b9250610a5f602085016109ca565b9150604084013590509250925092565b60008060408385031215610a81578182fd5b610a8a836109ca565b946020939093013593505050565b600060208284031215610aa9578081fd5b5035919050565b6001600160a01b0391909116815260200190565b901515815260200190565b6000602080835283518082850152825b81811015610afb57858101830151858201604001528201610adf565b81811115610b0c5783604083870101525b50601f01601f1916929092016040019392505050565b60208082526023908201527f45524332303a207472616e7366657220746f20746865207a65726f206164647260408201526265737360e81b606082015260800190565b60208082526022908201527f45524332303a206275726e20616d6f756e7420657863656564732062616c616e604082015261636560f01b606082015260800190565b60208082526026908201527f4f776e61626c653a206e6577206f776e657220697320746865207a65726f206160408201526564647265737360d01b606082015260800190565b60208082526022908201527f45524332303a20617070726f766520746f20746865207a65726f206164647265604082015261737360f01b606082015260800190565b6020808252601d908201527f45524332303a20696e73756666696369656e7420616c6c6f77616e6365000000604082015260600190565b60208082526026908201527f45524332303a207472616e7366657220616d6f756e7420657863656564732062604082015265616c616e636560d01b606082015260800190565b6020808252818101527f4f776e61626c653a2063616c6c6572206973206e6f7420746865206f776e6572604082015260600190565b60208082526021908201527f45524332303a206275726e2066726f6d20746865207a65726f206164647265736040820152607360f81b606082015260800190565b60208082526025908201527f45524332303a207472616e736665722066726f6d20746865207a65726f206164604082015264647265737360d81b606082015260800190565b60208082526024908201527f45524332303a20617070726f76652066726f6d20746865207a65726f206164646040820152637265737360e01b606082015260800190565b60208082526025908201527f45524332303a2064656372656173656420616c6c6f77616e63652062656c6f77604082015264207a65726f60d81b606082015260800190565b6020808252601f908201527f45524332303a206d696e7420746f20746865207a65726f206164647265737300604082015260600190565b90815260200190565b60ff91909116815260200190565b60008219821115610e5157610e51610ea8565b500190565b600082821015610e6857610e68610ea8565b500390565b600281046001821680610e8157607f821691505b60208210811415610ea257634e487b7160e01b600052602260045260246000fd5b50919050565b634e487b7160e01b600052601160045260246000fdfea2646970667358221220f1ff6ffff741b6ff9e83efe91f8865dd10ee6ceadf41819c7f9586d17f08c39b64736f6c63430008000033",
  "linkReferences": {},
  "deployedLinkReferences": {}
}