{
  "_format": "hh-sol-artifact-1",
  "contractName": "GSpot",
  "sourceName": "contracts/oracle/GSpot.sol",
  "abi": [
    {
      "anonymous": false,
      "inputs": [
        {
          "indexed": true,
          "internalType": "address",
          "name": "previousOwner",
          "type": "address"
        },
        {
          "indexed": true,
          "internalType": "address",
          "name": "newOwner",
          "type": "address"
        }
      ],
      "name": "OwnershipTransferred",
      "type": "event"
    },
    {
      "inputs": [
        {
          "internalType": "bytes32",
          "name": "synth",
          "type": "bytes32"
        },
        {
          "internalType": "address",
          "name": "spot_",
          "type": "address"
        }
      ],
      "name": "addSsm",
      "outputs": [],
      "stateMutability": "nonpayable",
      "type": "function"
    },
    {
      "inputs": [
        {
          "internalType": "bytes32",
          "name": "",
          "type": "bytes32"
        }
      ],
      "name": "oracles",
      "outputs": [
        {
          "internalType": "address",
          "name": "",
          "type": "address"
        }
      ],
      "stateMutability": "view",
      "type": "function"
    },
    {
      "inputs": [],
      "name": "owner",
      "outputs": [
        {
          "internalType": "address",
          "name": "",
          "type": "address"
        }
      ],
      "stateMutability": "view",
      "type": "function"
    },
    {
      "inputs": [
        {
          "internalType": "bytes32",
          "name": "synthKey",
          "type": "bytes32"
        }
      ],
      "name": "peek",
      "outputs": [
        {
          "internalType": "uint256",
          "name": "",
          "type": "uint256"
        },
        {
          "internalType": "bool",
          "name": "",
          "type": "bool"
        }
      ],
      "stateMutability": "view",
      "type": "function"
    },
    {
      "inputs": [
        {
          "internalType": "bytes32",
          "name": "synthKey",
          "type": "bytes32"
        }
      ],
      "name": "read",
      "outputs": [
        {
          "internalType": "uint256",
          "name": "",
          "type": "uint256"
        }
      ],
      "stateMutability": "view",
      "type": "function"
    },
    {
      "inputs": [],
      "name": "renounceOwnership",
      "outputs": [],
      "stateMutability": "nonpayable",
      "type": "function"
    },
    {
      "inputs": [
        {
          "internalType": "address",
          "name": "newOwner",
          "type": "address"
        }
      ],
      "name": "transferOwnership",
      "outputs": [],
      "stateMutability": "nonpayable",
      "type": "function"
    }
  ],
  "bytecode": "0x608060405234801561001057600080fd5b5061002161001c610026565b61002a565b61007a565b3390565b600080546001600160a01b038381166001600160a01b0319831681178455604051919092169283917f8be0079c531659141344cd1fd0a4f28419497f9722a3daafe3b4186f6b6457e09190a35050565b610650806100896000396000f3fe608060405234801561001057600080fd5b506004361061007d5760003560e01c80637f86d1eb1161005b5780637f86d1eb146100c85780638da5cb5b146100e9578063a81a2677146100fe578063f2fde38b146101115761007d565b806361da1439146100825780636608920f146100ab578063715018a6146100c0575b600080fd5b61009561009036600461048b565b610124565b6040516100a29190610601565b60405180910390f35b6100be6100b93660046104a3565b6101b1565b005b6100be610282565b6100db6100d636600461048b565b6102cd565b6040516100a292919061060a565b6100f1610364565b6040516100a29190610519565b6100f161010c36600461048b565b610373565b6100be61011f36600461046a565b61038e565b60008181526001602090815260408083205481516315f789a960e21b815291516001600160a01b03909116926357de26a49260048082019391829003018186803b15801561017157600080fd5b505afa158015610185573d6000803e3d6000fd5b505050506040513d601f19601f820116820180604052508101906101a991906104ce565b90505b919050565b6101b96103ff565b6001600160a01b03166101ca610364565b6001600160a01b0316146101f95760405162461bcd60e51b81526004016101f09061059c565b60405180910390fd5b6001600160a01b03811661021f5760405162461bcd60e51b81526004016101f09061052d565b6000828152600160205260409020546001600160a01b0316156102545760405162461bcd60e51b81526004016101f0906105d1565b60009182526001602052604090912080546001600160a01b0319166001600160a01b03909216919091179055565b61028a6103ff565b6001600160a01b031661029b610364565b6001600160a01b0316146102c15760405162461bcd60e51b81526004016101f09061059c565b6102cb6000610403565b565b6000818152600160205260408082205481516359e02dd760e01b815282518493849384936001600160a01b03909116926359e02dd792600480840193919291829003018186803b15801561032057600080fd5b505afa158015610334573d6000803e3d6000fd5b505050506040513d601f19601f8201168201806040525081019061035891906104e6565b90945092505050915091565b6000546001600160a01b031690565b6001602052600090815260409020546001600160a01b031681565b6103966103ff565b6001600160a01b03166103a7610364565b6001600160a01b0316146103cd5760405162461bcd60e51b81526004016101f09061059c565b6001600160a01b0381166103f35760405162461bcd60e51b81526004016101f090610556565b6103fc81610403565b50565b3390565b600080546001600160a01b038381166001600160a01b0319831681178455604051919092169283917f8be0079c531659141344cd1fd0a4f28419497f9722a3daafe3b4186f6b6457e09190a35050565b80356001600160a01b03811681146101ac57600080fd5b60006020828403121561047b578081fd5b61048482610453565b9392505050565b60006020828403121561049c578081fd5b5035919050565b600080604083850312156104b5578081fd5b823591506104c560208401610453565b90509250929050565b6000602082840312156104df578081fd5b5051919050565b600080604083850312156104f8578182fd5b825191506020830151801515811461050e578182fd5b809150509250929050565b6001600160a01b0391909116815260200190565b6020808252600f908201526e496e76616c6964206164647265737360881b604082015260600190565b60208082526026908201527f4f776e61626c653a206e6577206f776e657220697320746865207a65726f206160408201526564647265737360d01b606082015260800190565b6020808252818101527f4f776e61626c653a2063616c6c6572206973206e6f7420746865206f776e6572604082015260600190565b6020808252601690820152754164647265737320616c72656164792065786973747360501b604082015260600190565b90815260200190565b918252151560208201526040019056fea264697066735822122031060a5a9162d45a4435455d29026e500cd5b780d86257233db1ccd3c76189b264736f6c63430008000033",
  "linkReferences": {},
  "deployedLinkReferences": {}
}